:020000040000FA
:0400000033EF1DF0CD
:10080000004C6F6E67756974756400252E32660042
:10081000494E46004E414E00696E66006E616E00A4
:070820006C6600636D00002F
:10082800000E00017B6F000E7A6F30C08CF031C073
:100838008DF032C08EF033C08FF08FBF28EF04F0F8
:1008480026EF04F03EEF04F0000E7B6F010E7A6F86
:100858008CC001F08DC002F08EC003F08FC004F090
:10086800CDEC1CF001C08CF002C08DF003C08EF0FE
:1008780004C08FF0000E0001936F000E926FBAC093
:100888007FF0BBC080F07A517B11D8A44EEF04F002
:1008980050EF04F057EF04F0BEA555EF04F057EF02
:1008A80004F071EF04F07A517B11D8A45EEF04F0E4
:1008B80060EF04F066EF04F0000E656F2B0E646FB6
:1008C8006AEF04F0000E656F2D0E646F64C000F1CE
:1008D800924B932B7F07D8A080078CC001F08DC066
:1008E80002F08EC003F08FC004F0B3EC17F00104DF
:1008F8000210D8A482EF04F084EF04F0DBEF04F0D8
:10090800BF0E356EFF0E366E3450376E386A35506E
:1009180037263650382238500AE11A0E375CD8A0EC
:1009280098EF04F09BEF04F0010E9CEF04F0000E2A
:100938000001666F676B66516711D8B4A6EF04F0C3
:10094800A8EF04F0B6EF04F0000E9225016E010E38
:100958009321026E100E036E080E046EC6EC1BF097
:10096800C2EF04F0000E9225016E010E9321026E73
:10097800180E036E080E046EC6EC1BF00001FD0E87
:100988007F27FF0E80232EC011F02FC012F0000E1B
:10099800136E010E146E7FC015F080C016F081EC46
:1009A80019F011C02EF012C02FF0EBEF09F08CC037
:1009B80001F08DC002F08EC003F08FC004F0B3ECDC
:1009C80017F001500210D8A4ECEF04F0EEEF04F099
:1009D8002EEF05F0BF0E356EFF0E366E3450376EB3
:1009E800386A355037263650382238500AE11A0E00
:1009F800375CD8A002EF05F005EF05F0010E06EF11
:100A080005F0000E0001686F696B68516911D8B470
:100A180010EF05F012EF05F020EF05F0000E92251B
:100A2800016E010E9321026E140E036E080E046E01
:100A3800C6EC1BF0C2EF04F0000E9225016E010E09
:100A48009321026E1C0E036E080E046EC6EC1BF09A
:100A5800C2EF04F0000E0001946F000E956F800E37
:100A6800966F3F0E976F000E916F000E906F8CC0BF
:100A780001F08DC002F08EC003F08FC004F0000EAC
:100A8800056E000E066E000E076E000E086E9EECD8
:100A98001AF0D8B052EF05F054EF05F0D7EF05F093
:100AA80073EF05F094C001F095C002F096C003F012
:100AB80097C004F0000E056E000E066E200E076E3D
:100AC800410E086E7CEC0EF001C094F002C095F067
:100AD80003C096F004C097F00001904B912B8CC096
:100AE8001AF08DC01BF08EC01CF08FC01DF0000ED8
:100AF800056E000E066E200E076E410E086E94C03D
:100B080001F095C002F096C003F097C004F07CECA9
:100B18000EF001C01EF002C01FF003C020F004C098
:100B280021F031EC17F0D8B09CEF05F09EEF05F0FE
:100B380056EF05F0BEEF05F094C001F095C002F045
:100B480096C003F097C004F0000E056E000E066E06
:100B5800200E076E410E086E91EC10F001C094F063
:100B680002C095F003C096F004C097F0000190070A
:100B7800D8A091078CC01AF08DC01BF08EC01CF055
:100B88008FC01DF094C01EF095C01FF096C020F0D5
:100B980097C021F031EC17F0D8A0D5EF05F0D7EFCA
:100BA80005F0A0EF05F034C007F0086A67EC1BF009
:100BB80007500001816F81C07EF0670E8119D8A4AB
:100BC800E8EF05F0EAEF05F010EF06F0BC51BD11B3
:100BD800D8A4F1EF05F0F3EF05F0F7EF05F0000EFC
:100BE800BD6F010EBC6FBDBF04EF06F0BD5106E13D
:100BF800BC05D8B002EF06F004EF06F00AEF06F0E5
:100C0800000E7D6F060E7C6F19EF06F0BCC07CF0FD
:100C1800BDC07DF019EF06F0BDBF15EF06F017EF68
:100C280006F004EF06F00AEF06F0670E8119D8A463
:100C380020EF06F022EF06F051EF06F091AF30EF0B
:100C480006F0FC0E905DFF0E9159D8A02EEF06F02D
:100C580030EF06F04FEF06F0FF0E356EFF0E366EE2
:100C68007CC037F07DC038F03550372636503822F2
:100C78009051375C3850800A396E9151800A395842
:100C8800D8A049EF06F04BEF06F04FEF06F0660EDE
:100C98007E6F51EF06F0650E7E6F7CC074F07DC0EC
:100CA80075F0670E8119D8A45CEF06F05EEF06F0C8
:100CB8006EEF06F0660E7E19D8A465EF06F067EFB2
:100CC80006F070EF06F091BF6EEF06F06CEF06F0DD
:100CD80070EF06F0744B752B660E7E19D8A477EF6B
:100CE80006F079EF06F099EF06F091BF80EF06F075
:100CF8007EEF06F08CEF06F0000E946F000E956FF5
:100D0800800E966F3F0E976F000E916F000E906FDA
:100D1800670E8119D8B493EF06F095EF06F099EFB6
:100D280006F09051742791517523000E8B6F000EB9
:100D38008A6F8CC082F08DC083F08EC084F08FC023
:100D480085F094C060F095C061F096C062F097C0DD
:100D580063F02AEF07F082C001F083C002F084C07C
:100D680003F085C004F094C005F095C006F096C065
:100D780007F097C008F091EC10F001C01AF002C01B
:100D88001BF003C01CF004C01DF05EEC12F01AC08A
:100D980086F01BC087F01CC088F01DC089F086C093
:100DA80001F087C002F088C003F089C004F0AEECFF
:100DB80016F001C078F002C079F082C01AF083C042
:100DC8001BF084C01CF085C01DF094C005F095C0D0
:100DD80006F096C007F097C008F086C001F087C0FB
:100DE80002F088C003F089C004F07CEC0EF001C06A
:100DF8001EF002C01FF003C020F004C021F06CEC0C
:100E08001CF01AC082F01BC083F01CC084F01DC007
:100E180085F094C001F095C002F096C003F097C029
:100E280004F0000E056E000E066E200E076E410ED1
:100E3800086E91EC10F001C094F002C095F003C068
:100E480096F004C097F000018A4B8B2B74518A5D91
:100E58008B51800A356E7551800A3558D8A037EF06
:100E680007F039EF07F0AFEF06F094C001F095C036
:100E780002F096C003F097C004F0000E056E000E55
:100E8800066EA00E076E400E086E7CEC0EF001C0D8
:100E980086F002C087F003C088F004C089F082C0E1
:100EA8001AF083C01BF084C01CF085C01DF086C0FA
:100EB8001EF087C01FF088C020F089C021F031ECF7
:100EC80017F0D8B06AEF07F06CEF07F077EF07F08C
:100ED800000E0001866F000E876F000E886F000EEF
:100EE800896FA0EF07F082C001F083C002F084C0D0
:100EF80003F085C004F086C005F087C006F088C0FE
:100F080007F089C008F09EEC1AF0D8A08EEF07F021
:100F180090EF07F0A0EF07F0000178B196EF07F027
:100F280098EF07F0A0EF07F0000E866F000E876FAE
:100F3800000E886F000E896F8CC001F08DC002F022
:100F48008EC003F08FC004F086C005F087C006F09D
:100F580088C007F089C008F0ECEC09F001C082F005
:100F680002C083F003C084F004C085F060C094F030
:100F780061C095F062C096F063C097F0650E0001FD
:100F88007E19D8B4CAEF07F0CCEF07F0D2EF07F01C
:100F980090C076F091C077F0D6EF07F0000E776F2B
:100FA800000E766F000E736F000E726F000E716F79
:100FB800000E706F000E8B6F000E8A6FD1EF08F075
:100FC80082C001F083C002F084C003F085C004F041
:100FD80094C005F095C006F096C007F097C008F0D9
:100FE80091EC10F001C01AF002C01BF003C01CF015
:100FF80004C01DF05EEC12F01AC086F01BC087F02A
:101008001CC088F01DC089F086C001F087C002F0BE
:1010180088C003F089C004F0AEEC16F001C078F087
:1010280002C079F00001BEB91CEF08F01EEF08F00D
:101038003BEF08F078517911D8A425EF08F027EF95
:1010480008F03BEF08F0670E8119D8A42EEF08F0DE
:1010580030EF08F03BEF08F077BF37EF08F035EFD7
:1010680008F03BEF08F0704B712B85EF08F07251D8
:101078007311D8A442EF08F044EF08F06EEF08F0BF
:1010880077BF4BEF08F049EF08F06EEF08F0000E5D
:101098009225D96E010E9321DA6E2E0EDF6E924BD9
:1010A800932B7F07D8A08007000E736F010E726F15
:1010B8006EEF08F0000E9225D96E010E9321DA6EBC
:1010C800300EDF6E924B932B7F07D8A080077007F6
:1010D800D8A0710770517111D8A475EF08F077EF97
:1010E80008F05EEF08F0000E9225D96E010E9321EC
:1010F800DA6E7851300FDF6E924B932B7F07D8A0B2
:10110800800782C01AF083C01BF084C01CF085C021
:101118001DF094C005F095C006F096C007F097C082
:1011280008F086C001F087C002F088C003F089C0CB
:1011380004F07CEC0EF001C01EF002C01FF003C0EA
:1011480020F004C021F06CEC1CF01AC082F01BC027
:1011580083F01CC084F01DC085F094C001F095C0D8
:1011680002F096C003F097C004F0000E056E000E62
:10117800066E200E076E410E086E91EC10F001C04D
:1011880094F002C095F003C096F004C097F00001F7
:101198007607D8A077078A4B8B2B74518A5D8B51C1
:1011A800800A356E7551800A3558D8B0DEEF08F0E0
:1011B800E0EF08F0EEEF08F093BFECEF08F0935182
:1011C80009E14B0E925DD8A0ECEF08F0EEEF08F0C5
:1011D800E4EF07F072517311D8A4F5EF08F0F7EFB8
:1011E80008F008EF09F0BEA9FCEF08F0FEEF08F0E0
:1011F80008EF09F0000E9225D96E010E9321DA6EE0
:101208002E0EDF6E924B932B000E9225D96E010E97
:101218009321DA6E000EDF6E650E7E19D8A417EFE3
:1012280009F019EF09F0C7EF04F0000E8B6F4F0EAD
:101238008A6F000E8A25D96E010E8B21DA6E000E98
:10124800DF6E000E7B6F000E7A6F91BF30EF09F0F2
:101258002EEF09F038EF09F0000E7B6F010E7A6F60
:10126800906D911FD8B0912B000E7D6F020E7C6F90
:1012780069EF09F08A07D8A08B07000E8A25D96E76
:10128800010E8B21DA6E90C001F091C002F0000EC1
:10129800046E0A0E036E46EC1AF00150300FDF6E32
:1012A80090C001F091C002F0000E046E0A0E036EA9
:1012B800E4EC19F001C090F002C091F000017C0745
:1012C800D8A07D077F07D8A0800790519111D8A496
:1012D80070EF09F072EF09F03EEF09F07DBF7FEF84
:1012E80009F07D5106E17C05D8B07DEF09F07FEF6C
:1012F80009F03EEF09F08A07D8A08B077A517B11D5
:10130800D8A489EF09F08BEF09F091EF09F0000EEE
:101318006B6F2B0E6A6F95EF09F0000E6B6F2D0E39
:101328006A6F000E8A25D96E010E8B21DA6E6AC0AB
:10133800DFFF7F07D8A080078A07D8A08B07BF0EDA
:10134800356EFF0E366E3450376E386A3550372694
:101358003650382238500AE11A0E375CD8A0B7EF59
:1013680009F0BAEF09F0010EBBEF09F0000E6E6F3D
:101378006F6B6E516F11D8A4C4EF09F0C6EF09F076
:10138800CCEF09F0000E6D6F650E6C6FD0EF09F0B1
:10139800000E6D6F450E6C6F000E8A25D96E010E1A
:1013A8008B21DA6E6CC0DFFF7F07D8A08007000EA4
:1013B8009225016E010E9321026E000E8A25036E9E
:1013C800010E8B21046EC6EC1BF0C7EF04F012006F
:1013D8000450800B0D6E045004240F6E03AEF7EF1B
:1013E80009F0F9EF09F0FAEF09F00F800F50D8B4BF
:1013F80000EF0AF002EF0AF017EF0AF00F28D8A45E
:1014080008EF0AF00AEF0AF012EF0AF0000E016E78
:10141800000E026E000E036E000E046E038E000EA8
:10142800046E1FEF0AF0000E016E000E026E000E31
:10143800036E000E046E0850800B0E6E0D500E18D1
:10144800D8B429EF0AF02BEF0AF02CEF0AF00D8C34
:10145800085008240E6E07AE34EF0AF036EF0AF093
:1014680037EF0AF00E800E50D8B43DEF0AF03FEF88
:101478000AF054EF0AF00E28D8A445EF0AF047EF17
:101488000AF04FEF0AF0000E056E000E066E000E11
:10149800076E000E086E078E000E086E5CEF0AF0ED
:1014A800000E056E000E066E000E076E000E086E2A
:1014B8000F500E5CD8B063EF0AF065EF0AF08CEFBE
:1014C8000AF00DAC6AEF0AF06CEF0AF06EEF0AF062
:1014D800800E0D1A0FC010F00EC00FF010C00EF0E5
:1014E80001C010F005C001F010C005F002C010F0F6
:1014F80006C002F010C006F003C010F007C003F0E9
:1015080010C007F004C010F008C004F010C008F0C4
:10151800000E106E0F500EC009F00A6A095E000E28
:101528000A5A0ABEA1EF0AF00A5009E11A0E095C2C
:10153800D8A0A1EF0AF0A3EF0AF0DAEF0AF0015001
:10154800021003100410D8A4ACEF0AF0AFEF0AF0B1
:10155800010EB0EF0AF0000E106E000E016E000EC4
:10156800026E000E036E000E046E0EC00FF0E3EF65
:101578000AF010A0C2EF0AF0C4EF0AF0CAEF0AF0AE
:10158800D89010300109106ECCEF0AF0D8901032C4
:1015980001A0D1EF0AF0D3EF0AF0D4EF0AF0108ED1
:1015A800043404320332023201320F2A0E500F5C27
:1015B800D8A0E1EF0AF0E3EF0AF0BDEF0AF00DBCA6
:1015C800E8EF0AF0EAEF0AF02AEF0BF00F50D8A480
:1015D800F0EF0AF0F2EF0AF0FCEF0AF0000E016EED
:1015E800000E026E000E036E000E046E4BEF0CF040
:1015F80005500126065002220750032208500422F3
:1016080004A009EF0BF00BEF0BF0B7EF0BF010A0F5
:1016180010EF0BF012EF0BF018EF0BF0D890103022
:101628000109106E1AEF0BF0D890103201A01FEFCD
:101638000BF021EF0BF022EF0BF0108E0434043284
:101648000332023201320F2AB7EF0BF00550015C6A
:1016580006500258075003580450800A096E085073
:10166800800A0958D8B03BEF0BF03DEF0BF068EF5C
:101678000BF00150055C096E025006580A6E0350C3
:1016880007580B6E045008580C6EFF0E0924016EA3
:10169800FF0E0A20026EFF0E0B20036EFF0E0C20B9
:1016A800046E800E0D1A106C1050D8A45EEF0BF06B
:1016B80060EF0BF070EF0BF0010E0126000E022216
:1016C8000322042270EF0BF00550015E0650025A07
:1016D8000750035A0850045A01500210031004100E
:1016E800D8A479EF0BF07BEF0BF0B0EF0BF01050B4
:1016F800D8A481EF0BF083EF0BF0B0EF0BF0000EE6
:10170800016E000E026E000E036E000E046E4BEFAB
:101718000CF0D890013602360336043610AE97EF37
:101728000BF099EF0BF09AEF0BF0018010A09FEFF0
:101738000BF0A1EF0BF0A5EF0BF0D8801036A7EF58
:101748000BF0D89010360F50D8B4ADEF0BF0AFEFC8
:101758000BF0B0EF0BF00F0603AEB5EF0BF0B7EFE1
:101768000BF08DEF0BF0000E0E6E10AEBEEF0BF00F
:10177800C0EF0BF0D8EF0BF010C009F07F0E091680
:10178800D8B4C9EF0BF0CBEF0BF0CFEF0BF0010E95
:101798000E6ED8EF0BF001A0D4EF0BF0D6EF0BF0E4
:1017A800D8EF0BF0CBEF0BF00E50D8B4DEEF0BF008
:1017B800E0EF0BF00BEF0CF0010E0126000E0222F9
:1017C8000322042204A0EBEF0BF0EDEF0BF00BEF7C
:1017D8000CF001C009F002C00AF003C00BF004C00D
:1017E8000CF00C340C320B320A32093209C001F009
:1017F8000AC002F00BC003F00CC004F00F28D8B4E4
:1018080008EF0CF00AEF0CF00BEF0CF00F2A0F2882
:10181800D8B411EF0CF013EF0CF01BEF0CF00F50D5
:10182800D8A419EF0CF01BEF0CF02DEF0CF0000E04
:10183800016E000E026E000E036E000E046E0F5055
:10184800D8A429EF0CF02BEF0CF02DEF0CF0000EC4
:101858000D6E0FA032EF0CF034EF0CF037EF0CF0F8
:10186800038E38EF0CF0039ED8900F30046E0DAE47
:1018780040EF0CF042EF0CF043EF0CF0048E01C087
:1018880001F002C002F003C003F004C004F012002B
:101898003CC0D9FF3DC0DAFFDECFF6FFDDCFF7FF52
:1018A8000800F550250AD8A45CEF0CF05EEF0CF0A8
:1018B80060EF0EF03CC0D9FF3DC0DAFFDE2A000E13
:1018C800DD22000E0001BB6F000EBA6FBAC0BEF079
:1018D800BBC0BFF0BC69BD693CC0D9FF3DC0DAFFE1
:1018E800DECFF6FFDDCFF7FF0800F5502E0AD8A4AB
:1018F80080EF0CF082EF0CF0FFEF0CF0000EBD6FE4
:10190800000EBC6F3CC0D9FF3DC0DAFFDE2A000ED6
:10191800DD223CC0D9FF3DC0DAFFDECFF6FFDDCFC8
:10192800F7FF0800F5502A0AD8A49DEF0CF09FEFA6
:101938000CF0BCEF0CF03CC0D9FF3DC0DAFFDE2A4A
:10194800000EDD223EC0D9FF3FC0DAFFDFCF40F0F6
:10195800020EDE26DFCF41F0000EDD2240C0D9FFA7
:1019680041C0DAFFDECFBCF0DDCFBDF0FFEF0CF0F9
:101978003CC0D9FF3DC0DAFFDECF08F0DDCF09F06B
:1019880041EC14F008C0BCF009C0BDF0D3EF0CF076
:101998003CC0D9FF3DC0DAFFDE2A000EDD22D00EA2
:1019A800406EFF0E416E3CC0D9FF3DC0DAFFDECF6E
:1019B800F6FFDDCFF7FF0800F550426E436A40504E
:1019C80042264150432243500AE10A0E425CD8A005
:1019D800F0EF0CF0F3EF0CF0010EF4EF0CF0000E4A
:1019E800446E456A44504510D8A4FDEF0CF0FFEF53
:1019F8000CF0CCEF0CF03CC0D9FF3DC0DAFFDECFD5
:101A0800F6FFDDCFF7FF0800F550076E086A67ECB0
:101A18001BF007504C6E4C50D8B415EF0DF017EF73
:101A28000DF04FEF0DF03CC0D9FF3DC0DAFFDECF1F
:101A380040F0DDCF41F0010E4026000E412240C0AB
:101A4800F6FF41C0F7FF0800F550076E086A67EC1B
:101A58001BF007504D6E4D50D8B435EF0DF037EFF1
:101A68000DF04FEF0DF03CC0D9FF3DC0DAFFDECFDF
:101A780040F0DDCF41F0020E4026000E412240C06A
:101A8800F6FF41C0F7FF0800F550076E086A67ECDB
:101A98001BF007504E6E660E4C18D8A456EF0DF08A
:101AA80058EF0DF098EF0DF03CC0D9FF3DC0DAFFBC
:101AB800DECFF6FFDDCFF7FF0800F5CF4FF03CC0D3
:101AC800D9FF3DC0DAFFDE2A000EDD223EC0D9FF75
:101AD8003FC0DAFFDFCF40F0040EDE26DFCF41F053
:101AE800000EDD2240C0D9FF41C0DAFFDECF48F04A
:101AF800DECF49F0DECF4AF0DECF4BF03AC02EF011
:101B08003BC02FF048C030F049C031F04AC032F035
:101B18004BC033F04FC034F014EC04F02EC03AF050
:101B28002FC03BF07BEF0EF04C0E016E000E026EE4
:101B3800200E036E080E046E000E066E020E056E71
:101B4800B1EC18F001500210D8A4ADEF0DF0AFEFD2
:101B58000DF02AEF0EF03CC0D9FF3DC0DAFFDECF12
:101B680040F0DDCF41F0010E4026000E412240C07A
:101B7800F6FF41C0F7FF0800F5CF4FF0BF0E406EEB
:101B8800FF0E416E3CC0D9FF3DC0DAFFDECFF6FF45
:101B9800DDCFF7FF0800F550426E436A40504226F9
:101BA8004150432243500AE11A0E425CD8A0DFEFAD
:101BB8000DF0E2EF0DF0010EE3EF0DF0000E466EB2
:101BC800476A46504710D8B4ECEF0DF0EEEF0DF031
:101BD80008EF0EF03EC0D9FF3FC0DAFFDFCF40F07C
:101BE800040EDE26DFCF41F0000EDD2240C0D9FF13
:101BF80041C0DAFFDECF48F0DECF49F0DECF4AF051
:101C0800DECF4BF020EF0EF03EC0D9FF3FC0DAFF29
:101C1800DFCF40F0040EDE26DFCF41F0000EDD22DC
:101C280040C0D9FF41C0DAFFDECF48F0DECF49F02F
:101C3800DECF4AF0DECF4BF0020E3CC0D9FF3DC0EC
:101C4800DAFFDE26000EDD2282EF0DF03CC0D9FF60
:101C58003DC0DAFFDECFF6FFDDCFF7FF0800F55015
:101C6800250AD8A43AEF0EF03CEF0EF053EF0EF031
:101C78003CC0D9FF3DC0DAFFDE2A000EDD22000E8F
:101C8800026E250E016E3AC003F03BC004F01CEC56
:101C980019F0000E3B6E010E3A6E7BEF0EF03CC061
:101CA800D9FF3DC0DAFFDE2A000EDD22000E3B6EB2
:101CB800000E3A6E7BEF0EF03CC0D9FF3DC0DAFF54
:101CC800DECFF6FFDDCFF7FF0800F550016E026AA0
:101CD8003AC003F03BC004F01CEC19F03CC0D9FF3B
:101CE8003DC0DAFFDE2A000EDD224DEF0EF01200B5
:101CF8000450800B0D6E04500424136E03AE87EF5E
:101D08000EF089EF0EF08AEF0EF013801350D8B45E
:101D180090EF0EF092EF0EF0A5EF0EF01328D8A476
:101D280098EF0EF09AEF0EF0A2EF0EF0000E016E93
:101D3800000E026E000E036E000E046E038EADEFF1
:101D48000EF0000E016E000E026E000E036E000E05
:101D5800046E0850800B0D1A08500824126E07AE46
:101D6800B8EF0EF0BAEF0EF0BBEF0EF01280125083
:101D7800D8B4C1EF0EF0C3EF0EF0D6EF0EF0122874
:101D8800D8A4C9EF0EF0CBEF0EF0D3EF0EF0000E93
:101D9800056E000E066E000E076E000E086E078EAA
:101DA800DEEF0EF0000E056E000E066E000E076EDA
:101DB800000E086E1250D8B4E4EF0EF0E6EF0EF005
:101DC800EEEF0EF01350D8A4ECEF0EF0EEEF0EF09D
:101DD800F8EF0EF0000E016E000E026E000E036E9C
:101DE800000E046E90EF10F007500102F3CF18F0C8
:101DF800F4CF19F018500E6E0F6A106A116A195054
:101E0800146E156A166A176A06500202F3CF18F0A4
:101E1800F4CF19F018500E26000E0F2210221122AE
:101E280019501426000E15221622172205500302F7
:101E3800F3CF18F0F4CF19F018500E26000E0F2229
:101E48001022112219501426000E152216221722CC
:101E580010C011F00FC010F00EC00FF00E6A055040
:101E68000202F3CF18F0F4CF19F018500E261950CB
:101E78000F22000E1022000E112206500102F3CF8D
:101E880018F0F4CF19F018500E2619500F22000E32
:101E98001022000E112210C011F00FC010F00EC059
:101EA8000FF00E6A05500102F3CF18F0F4CF19F0C5
:101EB80018500E2619500F22000E1022000E112263
:101EC80007500202F3CF18F0F4CF19F01850142677
:101ED80019501522000E1622000E17220650030272
:101EE800F3CF18F0F4CF19F0185014261950152212
:101EF800000E1622000E172207500302F3CF18F027
:101F0800F4CF19F01850096E19500A6E0B6A0C6A52
:101F18000BC00CF00AC00BF009C00AF0096A09509E
:101F280014260A5015220B5016220C5017220EC0E8
:101F380009F00FC00AF010C00BF011C00CF0190E18
:101F4800ABEF0FF0D8900C320B320A320932E82E80
:101F5800A6EF0FF0095014260A5015220B5016222E
:101F68000C50172210C011F00FC010F00EC00FF067
:101F78000E6A125013C009F00A6A0926000E0A22D6
:101F8800820E0924186EFF0E0A20196EE1EF0FF079
:101F9800D890143615361636173611AED6EF0FF020
:101FA800D8EF0FF0D9EF0FF01480D8900E360F3617
:101FB800103611361806D8A0190616AEE6EF0FF03F
:101FC800E8EF0FF0CCEF0FF0000E126E11AEEFEF4E
:101FD8000FF0F1EF0FF015EF10F0FF0E0E14096E71
:101FE800FF0E0F140A6EFF0E10140B6E7F0E1114E5
:101FF8000C6E09500A100B100C10D8B406EF10F034
:1020080008EF10F00CEF10F0010E126E15EF10F043
:1020180014A011EF10F013EF10F015EF10F008EF07
:1020280010F01250D8B41BEF10F01DEF10F041EF74
:1020380010F0010E1426000E15221622172217A0E2
:1020480028EF10F02AEF10F041EF10F014C009F05B
:1020580015C00AF016C00BF017C00CF00C340C3287
:102068000B320A32093209C014F00AC015F00BC04D
:1020780016F00CC017F0184A192A19BE4CEF10F0C8
:10208800195008E11828D8A04CEF10F04EEF10F0C6
:1020980058EF10F0000E146E000E156E800E166EBE
:1020A8007F0E176E86EF10F019BE65EF10F019500D
:1020B80006E11804D8B063EF10F065EF10F071EF87
:1020C80010F0000E146E000E156E000E166E000E47
:1020D800176E000E0D6E86EF10F018C013F0FF0E8D
:1020E8001416FF0E15167F0E1616000E171613A0DF
:1020F80080EF10F082EF10F083EF10F0168ED8907A
:102108001330176E0D50171214C001F015C002F0ED
:1021180016C003F017C004F012000450800B116EB3
:1021280004500424186E03AE9CEF10F09EEF10F0DC
:102138009FEF10F018801850D8B4A5EF10F0A7EF53
:1021480010F0BCEF10F01828D8A4ADEF10F0AFEFE6
:1021580010F0B7EF10F0000E016E000E026E000EC8
:10216800036E000E046E038E000E046EC4EF10F0B2
:10217800000E016E000E026E000E036E000E046E5D
:102188000850800B111A08500824196E07AECFEFBB
:1021980010F0D1EF10F0D2EF10F019801950D8B428
:1021A800D8EF10F0DAEF10F0EFEF10F01928D8A4FC
:1021B800E0EF10F0E2EF10F0EAEF10F0000E056E1D
:1021C800000E066E000E076E000E086E078E000EDB
:1021D800086EF7EF10F0000E056E000E066E000E8A
:1021E800076E000E086E0550061007100810D8A4D8
:1021F80000EF11F002EF11F01AEF11F0000E016E6E
:10220800000E026E000E036E000E046E800E0312A6
:102218007F0E04121150041201C001F002C002F036
:1022280003C003F004C004F05DEF12F01850D8A406
:1022380020EF11F022EF11F02CEF11F0000E016EDB
:10224800000E026E000E036E000E046E5DEF12F0BB
:10225800195018C009F00A6A095E000E0A5A7F0E62
:102268000924126E000E0A20136E01C00DF002C080
:102278000EF003C00FF004C010F0000E016E000E47
:10228800026E000E036E000E046E000E146E000E39
:10229800156E000E166E000E176E000E196E8DEF7D
:1022A80011F01950D8B45BEF11F05DEF11F074EF35
:1022B80011F0D8900D360E360F361036D8900136FC
:1022C80002360336043617AE6CEF11F06EEF11F0DC
:1022D8006FEF11F00180D890143615361636173680
:1022E80005500D5C06500E5807500F5808501058EE
:1022F800D8A081EF11F083EF11F08CEF11F0178C5B
:1023080005500D5E06500E5A07500F5A0850105AC5
:10231800192A190E196493EF11F095EF11F055EF82
:1023280011F00D500E100F101010D8B49EEF11F0D0
:10233800A0EF11F0B8EF11F01480B8EF11F0D890B9
:10234800013602360336043617AEADEF11F0AFEFA3
:1023580011F0B0EF11F00180D8901436153616360A
:1023680017361206D8A0130603AEBDEF11F0BFEF63
:1023780011F0A3EF11F0000E196E17AEC6EF11F0B1
:10238800C8EF11F0ECEF11F0FF0E1414096EFF0EF8
:1023980015140A6EFF0E16140B6E7F0E17140C6EB2
:1023A80009500A100B100C10D8B4DDEF11F0DFEF54
:1023B80011F0E3EF11F0010E196EECEF11F001A02E
:1023C800E8EF11F0EAEF11F0ECEF11F0DFEF11F0A8
:1023D8001950D8B4F2EF11F0F4EF11F018EF12F031
:1023E800010E0126000E02220322042204A0FFEFA0
:1023F80011F001EF12F018EF12F001C009F002C05D
:102408000AF003C00BF004C00CF00C340C320B3291
:102418000A32093209C001F00AC002F00BC003F009
:102428000CC004F0124A132A13BE23EF12F0135003
:1024380008E11228D8A023EF12F025EF12F030EFB0
:1024480012F0000E136E1268000E016E000E026E7E
:10245800000E036E000E046E13BE3DEF12F0135013
:1024680006E11204D8B03BEF12F03DEF12F04BEF4B
:1024780012F0000E136E000E126E000E016E000EAA
:10248800026E000E036E000E046E000E116E12C076
:1024980018F018A052EF12F054EF12F057EF12F0A4
:1024A800038E58EF12F0039ED8901830046E0EEF8A
:1024B80011F01200B0C02AF0B1C02BF0B2C02CF05D
:1024C800B3C02DF01AC02AF01BC02BF01CC02CF092
:1024D8001DC02DF0810E1E6EFF0E1F6E2AC020F04B
:1024E8002BC021F02CC022F02DC023F0180E82EF53
:1024F80012F0D8902332223221322032E82E7DEF9A
:1025080012F020501E24286E000E1F20296E29BEAE
:1025180097EF12F0295009E1170E285CD8A097EF21
:1025280012F099EF12F0A3EF12F01AC01AF01BC0C4
:102538001BF01CC01CF01DC01DF066EF13F029BE77
:10254800A8EF12F0AAEF12F01AEF13F028C01EF04D
:10255800FF0E1F6EFF0E206E7F0E216E000E226E84
:102568001E66B9EF12F0C1EF12F022342232213286
:1025780020321F321E2EB4EF12F01FC024F020C0EC
:1025880025F021C026F022C027F024502A141E6E00
:1025980025502B141F6E26502C14206E27502D14F6
:1025A800216E1E501F1020102110D8A4DEEF12F04B
:1025B800E0EF12F0E2EF12F099EF12F02AC01EF0ED
:1025C8002BC01FF02CC020F02DC021F0200EF2EF00
:1025D80012F0D890213220321F321E32E82EEDEF51
:1025E80012F01E501F1020102110D8B4FEEF12F068
:1025F80000EF13F008EF13F024502A2625502B2261
:1026080026502C2227502D22241C1E6E251C1F6E9E
:10261800261C206E271C216E1E502A161F502B16B2
:1026280020502C1621502D165EEF13F02AC01EF0F4
:102638002BC01FF02CC020F02DC021F0200E2AEF57
:1026480013F0D890213220321F321E32E82E25EFA7
:1026580013F01E501F1020102110D8A436EF13F0CD
:1026680038EF13F042EF13F0000E2A6E000E2B6EB7
:10267800000E2C6E000E2D6E5EEF13F0D8902A34EB
:102688001E6E2B341F6E2C34206E2D34216E1E507E
:102698001F1020102110D8B454EF13F056EF13F088
:1026A8005EEF13F0000E2A6E000E2B6E800E2C6E5D
:1026B800BF0E2D6E2AC01AF02BC01BF02CC01CF0C8
:1026C8002DC01DF01200096E0950D8B46EEF13F03A
:1026D80070EF13F092EF13F004BE77EF13F075EF7D
:1026E80013F092EF13F001C005F002C006F003C02A
:1026F80007F004C008F0051E061E071E081E052A5E
:10270800000E06220722082205C00BF006C00CF0B6
:1027180007C00DF008C00EF09AEF13F001C00BF0DF
:1027280002C00CF003C00DF004C00EF001500210FE
:1027380003100410D8A4A3EF13F0A5EF13F0AFEF24
:1027480013F0000E016E000E026E000E036E000EF6
:10275800046E40EF14F0960E0A6EB9EF13F00A2AD1
:10276800D8900E320D320C320B32000E0B14056E5F
:10277800000E0C14066E000E0D14076EFE0E0E14DD
:10278800086E0550061007100810D8A4CEEF13F0F5
:10279800D0EF13F0B3EF13F0DEEF13F00A2A010EB7
:1027A8000B26000E0C220D220E22D8900E320D326E
:1027B8000C320B32000E0B14056E000E0C14066E54
:1027C800000E0D14076EFF0E0E14086E055006104D
:1027D80007100810D8A4F3EF13F0F5EF13F0D2EFB9
:1027E80013F0FDEF13F00A06D8900B360C360D36B1
:1027F8000E360DBE02EF14F004EF14F00CEF14F0D7
:10280800020E0A600AEF14F00CEF14F0F7EF13F061
:102818000AB011EF14F013EF14F014EF14F00D9E3A
:10282800D8900A320AC005F0066A076A086A05C025
:1028380008F0076A066A056A05500B1206500C1262
:1028480007500D1208500E120950D8B42EEF14F08C
:1028580030EF14F038EF14F004BE37EF14F035EF12
:1028680014F038EF14F00E8E0BC001F00CC002F01B
:102878000DC003F00EC004F01200000E166E000E1C
:10288800156E000E0F6E000E0E6E4DEF14F0084A16
:10289800092A010E146E08C0F6FF09C0F7FF0800E8
:1028A800F550200AD8B45BEF14F05DEF14F07AEF1E
:1028B80014F0F70E0A6EFF0E0B6E08C0F6FF09C083
:1028C800F7FF0800F5500C6E0D6A0A500C260B50E5
:1028D8000D220D5009E1050E0C5CD8A076EF14F01E
:1028E80078EF14F07AEF14F0000E146E14C010F0A4
:1028F800116A10501110D8A484EF14F086EF14F068
:102908004BEF14F090EF14F0000E0F6E010E0E6EE8
:10291800084A092AC5EF14F008C0F6FF09C0F7FFF6
:102928000800F5500A6E0B6A0B50000AD8B49FEFE6
:1029380014F0C5EF14F00A502B0AD8B48CEF14F039
:10294800060AD8B488EF14F0C5EF14F015C001F0EA
:1029580016C002F0000E046E0A0E036E20EC1DF085
:1029680008C0F6FF09C0F7FF0800F550015E000E29
:10297800025A300E0124156E000E0220166E8CEFDE
:1029880014F0D00E0A6EFF0E0B6E08C0F6FF09C0D9
:10299800F7FF0800F5500C6E0D6A0A500C260B5014
:1029A8000D220D500AE10A0E0C5CD8A0DEEF14F0DF
:1029B800E1EF14F0010EE2EF14F0000E126E136A4C
:1029C80012501310D8A4EBEF14F0EDEF14F0AAEFA7
:1029D80014F00E500F10D8A4F4EF14F0F6EF14F022
:1029E80004EF15F015C00AF016C00BF00A1E0B1EF6
:1029F8000A4A0B2A0AC008F00BC009F008EF15F0C4
:102A080015C008F016C009F01200959E958C0F0E9F
:102A1800C16E800ECD6EF3EC1AF0000E54EC1DF072
:102A2800010E0E6E080E0F6E97EC1BF00E0E4EEC9C
:102A38001DF0230E0E6E080E0F6E97EC1BF0000EA5
:102A4800CF6E000ECE6ECD90839E100EE82EFED770
:102A580000D0838E100EE82EFED700D0839E83AC64
:102A680038EF15F03AEF15F033EF15F0000ECF6E92
:102A7800000ECE6ECD8083BC44EF15F046EF15F006
:102A88003FEF15F0CECF01F0CFCF02F0036A046A12
:102A9800000E67EC13F001C0ACF002C0ADF003C04B
:102AA800AEF004C0AFF0CD90ACC001F0ADC002F004
:102AB800AEC003F0AFC004F0000E056E800E066EC7
:102AC8009D0E076E430E086E91EC10F001C0A8F041
:102AD80002C0A9F003C0AAF004C0ABF0A40E586E5F
:102AE800000E596E0B0E5A6E080E5B6EA8C05CF095
:102AF800A9C05DF0AAC05EF0ABC05FF0F4EC1BF0BB
:102B0800080E4EEC1DF0A40E0E6E000E0F6E97EC24
:102B18001BF0020E0001A36F450EA26FA90EE82E4E
:102B2800FED7A22FFCD7A32FFAD700D028EF15F095
:102B380000EF00F0026E02BEA4EF15F0A8EF15F04A
:102B4800016A012AA9EF15F0016A013201328150A8
:102B580001187F0B0118816E02BCB5EF15F0B9EFB3
:102B680015F0016A012ABAEF15F0016A013A014627
:102B7800014681500118BF0B0118816E02BAC7EFD8
:102B880015F0CBEF15F0016A012ACCEF15F0016AB8
:102B9800013A014681500118DF0B0118816E02B815
:102BA800D8EF15F0DCEF15F0016A012ADDEF15F01A
:102BB800016A013A81500118EF0B0118816E02B6C3
:102BC800E8EF15F0ECEF15F0016A012AEDEF15F0CA
:102BD800016A01460146014681500118F70B0118A8
:102BE800816E02B4FAEF15F0FEEF15F0016A012AC2
:102BF800FFEF15F0016A0146014681500118FB0BF1
:102C08000118816E02B20BEF16F00FEF16F0016A91
:102C1800012A10EF16F0016A014681500118FD0BD8
:102C28000118816E02B01BEF16F01FEF16F0016A53
:102C3800012A20EF16F0016A81500118FE0B0118D5
:102C4800816E1200026E02BE2CEF16F030EF16F005
:102C5800016A012A31EF16F0016A013201329350FC
:102C680001187F0B0118936E02BC3DEF16F041EF7F
:102C780016F0016A012A42EF16F0016A013A01468C
:102C8800014693500118BF0B0118936E02BA4FEF1B
:102C980016F053EF16F0016A012A54EF16F0016A94
:102CA800013A014693500118DF0B0118936E02B8E0
:102CB80060EF16F064EF16F0016A012A65EF16F06E
:102CC800016A013A93500118EF0B0118936E02B68E
:102CD80070EF16F074EF16F0016A012A75EF16F01E
:102CE800016A01460146014693500118F70B011885
:102CF800936E02B482EF16F086EF16F0016A012A8D
:102D080087EF16F0016A0146014693500118FB0B44
:102D18000118936E02B293EF16F097EF16F0016A5E
:102D2800012A98EF16F0016A014693500118FD0B2D
:102D38000118936E02B0A3EF16F0A7EF16F0016A20
:102D4800012AA8EF16F0016A93500118FE0B01182A
:102D5800936E1200033404340A6E0A50D8A4B7EFF5
:102D680016F0B9EF16F0C3EF16F0000E016E000E64
:102D7800026E000E036E000E046E30EF17F001C0F5
:102D880005F002C006F003C007F004C008F0200EEA
:102D9800D3EF16F0D8900832073206320532E82E03
:102DA800CEEF16F00550096E038EFF0E0116FF0ECA
:102DB8000216FF0E0316000E0416960E0A5E0ABED1
:102DC800EAEF16F0E8EF16F000EF17F00A50800A65
:102DD800970FD8B0F2EF16F0F4EF16F0F6EF16F002
:102DE800B9EF16F0D89004320332023201320A3EAB
:102DF800F6EF16F018EF17F01F0E0A6406EF17F03B
:102E080008EF17F010EF17F0B9EF16F0D890013669
:102E18000236033604360A060A50D8A416EF17F00D
:102E280018EF17F00AEF17F00950D8B41EEF17F093
:102E380020EF17F028EF17F0041E031E021E016C86
:102E4800000E02220322042201C001F002C002F097
:102E580003C003F004C004F01200000E1A14226E1E
:102E6800000E1B14236E800E1C14246E7F0E1D147E
:102E7800256E2250231024102510D8A446EF17F0F1
:102E880048EF17F050EF17F0000E1A6E000E1B6E89
:102E9800000E1C6E000E1D6E000E1E14226E000E1B
:102EA8001F14236E800E2014246E7F0E2114256EAD
:102EB8002250231024102510D8A465EF17F067EFCF
:102EC80017F06FEF17F0000E1E6E000E1F6E000E4B
:102ED800206E000E216E1DAE74EF17F076EF17F01E
:102EE8007FEF17F01A6C1B1ED8B01B2A1C1ED8B017
:102EF8001C2A800E1D5621AE84EF17F086EF17F0BE
:102F08008FEF17F01E6C1F1ED8B01F2A201ED8B0D6
:102F1800202A800E2156000E1A1A000E1B1A000EC7
:102F28001C1A800E1D1A000E1E1A000E1F1A000E03
:102F3800201A800E211A1E501A5C1F501B58205050
:102F48001C5821501D58D8B0ACEF17F0AEEF17F051
:102F5800B1EF17F0D890B2EF17F0D8801200B4C0D4
:102F68000BF0B5C00CF0B6C00DF0B7C00EF001C044
:102F78000BF002C00CF003C00DF004C00EF00BC043
:102F880005F00CC006F00DC007F00EC008F0180ED2
:102F9800D3EF17F0D8900832073206320532E82E00
:102FA800CEEF17F00550096E0A6A09500A10D8A426
:102FB800E0EF17F0E2EF17F002EF18F0D8900B34BB
:102FC800056E0C34066E0D34076E0E34086E05500F
:102FD800061007100810D8A4F4EF17F0F6EF17F052
:102FE800FCEF17F0000E026E020E016E31EF18F0C2
:102FF800000E026E030E016E31EF18F009280A1058
:10300800D8A409EF18F00BEF18F02DEF18F00BC04B
:1030180005F00CC006F00DC007F00EC008F0090E50
:10302800D8900536063607360836E82E14EF18F01D
:103038000550061007100810D8B425EF18F028EF2F
:1030480018F0010E29EF18F0000E016E026A31EF38
:1030580018F0000E026E040E016E12000B6E93B093
:1030680038EF18F03CEF18F0036A032A3DEF18F028
:10307800036A93B242EF18F046EF18F0020E046E9E
:1030880047EF18F0046A93B44CEF18F050EF18F0BB
:10309800040E056E51EF18F0056A93B656EF18F056
:1030A8005AEF18F0080E066E5BEF18F0066A93B830
:1030B80060EF18F064EF18F0100E076E65EF18F067
:1030C800076A93BA6AEF18F06EEF18F0200E086ED0
:1030D8006FEF18F0086A93BC74EF18F078EF18F0E7
:1030E800400E096E79EF18F0096A93BE7EEF18F06A
:1030F80082EF18F0800E0A6E83EF18F00A6A0A5001
:1031080009100810071006100510041003100C6EA3
:10311800939E939C939A9398939693949392939057
:103128000B509EEC15F0838000F083900C5026EC39
:1031380016F083B4A2EF18F0A4EF18F0ACEF18F073
:103148001A0E036EF80EE82EFED7032EFCD700D019
:10315800100EE82EFED700D0120001C008F002C001
:1031680009F003C00AF004C00BF00506D8A0060653
:10317800052806E10628D8A4C4EF18F0C6EF18F011
:10318800D3EF18F0000E026E000E016E1BEF19F05F
:10319800084A092A0A4A0B2A0506D8A0060608C0C2
:1031A800D9FF09C0DAFFDF50D8B4DDEF18F0DFEF40
:1031B80018F00AEF19F00AC0F6FF0BC0F7FF080075
:1031C800F5500009D8B4EBEF18F0EDEF18F00AEF5E
:1031D80019F005500610D8B4F4EF18F0F6EF18F00F
:1031E8000AEF19F008C0D9FF09C0DAFFDF50076EEF
:1031F8000AC0F6FF0BC0F7FF0800F5500718D8B44F
:1032080008EF19F00AEF19F0CCEF18F008C0D9FF51
:1032180009C0DAFFDF50076E0AC0F6FF0BC0F7FFE0
:103228000800F550075C016E026AD8A00206120079
:1032380003500410D8B423EF19F025EF19F02EEF3E
:1032480019F003500410D8A42CEF19F02EEF19F040
:1032580033EF19F0015070EC1DF080EF19F020EEFB
:1032680004F00350D9260450DA22DE50DE10D8B418
:1032780040EF19F042EF19F05DEF19F020EE04F07D
:103288000350D9260450DA2210EE02F00350E1264A
:103298000450E222DE50E65CE650800A096EDE50F9
:1032A800800A0958D8B05BEF19F05DEF19F080EF8C
:1032B80019F020EE02F00350D9260450DA22DECFAE
:1032C80005F0DDCF06F003C0D9FF04C0DAFFDECF7A
:1032D80007F0DDCF08F005500724D96E0650082006
:1032E800DA6E01C0DFFF20EE02F00350D926045049
:1032F800DA22DE2A000EDD2212000001BEA187EFCD
:1033080019F089EF19F093EF19F013C00AF014C0FF
:103318000BF011C00CF012C00DF08FEC1CF016BEB3
:1033280098EF19F09AEF19F0A0EF19F015C01AF0FC
:1033380016C01BF0A4EF19F0000E1B6E000E1A6EDB
:10334800000E196E000E186EB6EF19F0000E026E20
:10335800200E016E11C003F012C004F01CEC19F02D
:10336800184A192A1A50185C1950800A176E1B50EF
:10337800800A1758D8A0C3EF19F0C5EF19F0AAEFC3
:1033880019F00001BEB1CBEF19F0CDEF19F0D7EF6E
:1033980019F013C00AF014C00BF011C00CF012C0E1
:1033A8000DF08FEC1CF013C001F014C002F005EC16
:1033B8001DF01A500124116E1B500220126E1200CB
:1033C800000E066E04BEEDEF19F0EBEF19F0F3EF07
:1033D80019F0036C041ED8B0042A010E066E02BE52
:1033E800FAEF19F0F8EF19F000EF1AF0016C021E6D
:1033F800D8B0022A010E061A000E086E000E076EDB
:1034080003500410D8B40BEF1AF00DEF1AF035EF93
:103418001AF0010E056E15EF1AF0D890033604362F
:10342800052A04AE1AEF1AF01CEF1AF011EF1AF081
:10343800D890073608360350015C04500258D8A0CB
:1034480028EF1AF02AEF1AF02FEF1AF00350015E56
:103458000450025A0780D89004320332052E1CEF1C
:103468001AF00650D8B43BEF1AF03DEF1AF041EFCE
:103478001AF0076C081ED8B0082A07C001F008C067
:1034880002F01200000E066E02BE4FEF1AF04DEF6A
:103498001AF055EF1AF0016C021ED8B0022A010E7C
:1034A800066E04BE5CEF1AF05AEF1AF060EF1AF0DD
:1034B800036C041ED8B0042A03500410D8B467EF74
:1034C8001AF069EF1AF08DEF1AF0010E056E71EF20
:1034D8001AF0D89003360436052A04AE76EF1AF0AF
:1034E80078EF1AF06DEF1AF00350015C045002589F
:1034F800D8A081EF1AF083EF1AF087EF1AF0035083
:10350800015E0450025AD89004320332052E78EF37
:103518001AF00650D8B493EF1AF095EF1AF099EF15
:103528001AF0016C021ED8B0022A01C001F002C0D4
:1035380002F01200000E0114096E000E02140A6E49
:10354800800E03140B6E7F0E04140C6E09500A10C3
:103558000B100C10D8A4B3EF1AF0B5EF1AF0BDEFAA
:103568001AF0000E016E000E026E000E036E000EC1
:10357800046E000E0514096E000E06140A6E800E05
:1035880007140B6E7F0E08140C6E09500A100B10EE
:103598000C10D8A4D2EF1AF0D4EF1AF0DCEF1AF01E
:1035A800000E056E000E066E000E076E000E086E09
:1035B800055001180FE1065002180CE107500318D6
:1035C80009E108500418D8B4ECEF1AF0EEEF1AF03D
:1035D800F1EF1AF0D890F2EF1AF0D8801200959413
:1035E80095929590939E939C939A9398939693947F
:1035F80093929390839283908394020E0F6E040E9D
:103608000E6EBA0EE82EFED70E2EFCD70F2EFAD766
:1036180000D0380E32EC18F0070E0E6E7D0EE82E34
:10362800FED70E2EFCD700F0300E32EC18F0420E0A
:10363800E82EFED700D0300E32EC18F0420EE82EFD
:10364800FED700D0300E32EC18F0060EE82EFED76A
:1036580000D06CEC1DF068EC1DF060EC1DF064EC23
:103668001DF0120052C056F053C057F0000E000172
:10367800B96F000EB86F54EF1BF050C03AF051C04C
:103688003BF0560E3C6E000E3D6E54C03EF055C0E9
:103698003FF04CEC0CF03A500001B8273B50B923EE
:1036A80056C0F6FF57C0F7FF0800F5500009D8A428
:1036B80060EF1BF062EF1BF041EF1BF0B8C050F059
:1036C800B9C051F01200BF0E096EFF0E0A6E07C096
:1036D8000BF008C00CF009500B260A500C220C50B5
:1036E8000AE11A0E0B5CD8A07CEF1BF07FEF1BF0F1
:1036F800010E80EF1BF0000E0D6E0E6A0D500E10BD
:10370800D8B489EF1BF08BEF1BF092EF1BF0200E63
:103718000710076E0850086E96EF1BF007C007F0F9
:1037280008C008F01200ADEF1BF00EC0F6FF0FC086
:10373800F7FFF86A070EF76403D00800F55005D0C4
:10374800F6CFE9FFF7CFEAFFEF5044EC1DF00E4A41
:103758000F2A0EC0F6FF0FC0F7FFF86A070EF764CE
:1037680003D00800F55005D0F6CFE9FFF7CFEAFF00
:10377800EF500009D8A4C3EF1BF0C5EF1BF099EF79
:103788001BF0120003C007F004C008F001C009F0E4
:1037980002C00AF00750056E0850066E074A082A4C
:1037A80005C0F6FF06C0F7FFF86A09C0D9FF0AC0CE
:1037B800DAFF094A0A2A070EF76403D00800F55011
:1037C80005D0F6CFE9FFF7CFEAFFEF50DF6EDF5005
:1037D800D8A4F1EF1BF0F3EF1BF0CEEF1BF01200B3
:1037E8005C0E00019A6F000E9B6F58C09CF059C088
:1037F8009DF0000E9F6F000E9E6F000EA16F000ED1
:10380800A06F9C0E506E000E516E5AC052F05BC0F5
:1038180053F09A0E546E000E556E36EC1BF00001F4
:103828009E515824D96E9F515920DA6E000EDF6ED2
:103838001200010E076E200E01180210D8B427EFEF
:103848001CF029EF1CF042EF1CF0F70E036EFF0E80
:10385800046E01C005F002C006F0035005260450AE
:103868000622065009E1050E055CD8A03EEF1CF0C3
:1038780040EF1CF042EF1CF0000E076E07C001F08D
:10388800026A1200016EF10E0118D8A44EEF1CF066
:1038980050EF1CF053EF1CF0EE0E6BEF1CF0D10E46
:1038A8000118D8A45AEF1CF05CEF1CF05EEF1CF076
:1038B80050EF1CF0B00E0118D8A465EF1CF067EFAC
:1038C8001CF06AEF1CF0DF0E6BEF1CF001501200C9
:1038D800000E1E1A000E1F1A000E201A800E211A42
:1038E8001AC001F01BC002F01CC003F01DC004F098
:1038F8001EC005F01FC006F020C007F021C008F068
:10390800ECEC09F001C01AF002C01BF003C01CF077
:1039180004C01DF01200000E106E000E0F6EA0EF16
:103928001CF00EC001F0026A0CC003F00DC004F0D8
:103938001CEC19F00F4A102A0F500A24D96E1050A7
:103948000B20DA6EDF500E6E0E50D8A4AEEF1CF0CE
:10395800B0EF1CF095EF1CF01200BF0E036EFF0EC7
:10396800046E01C005F002C006F00350052604509D
:10397800062206500AE11A0E055CD8A0C6EF1CF014
:10398800C9EF1CF0010ECAEF1CF0000E016E026AAE
:1039980012000150021003100410D8B4D6EF1CF026
:1039A800D8EF1CF0E0EF1CF0000E011A000E021A0E
:1039B800000E031A800E041A01C001F002C002F0C2
:1039C80003C003F004C004F01200D00E036EFF0E13
:1039D800046E01C005F002C006F00350052604502D
:1039E800062206500AE10A0E055CD8A0FEEF1CF07C
:1039F80001EF1DF0010E02EF1DF0000E016E026ACC
:103A0800120001C003F002C004F00DEF1DF0014ADE
:103A1800022A01C0D9FF02C0DAFFDF50D8A417EF8D
:103A28001DF019EF1DF00BEF1DF00350015C016E46
:103A380004500258026E120001500302F3CF05F041
:103A4800F4CF06F001500402F35006260250030298
:103A5800F350062605C001F006C002F0120001EE80
:103A680000F0500EEE6AE806FDE100EEB0F0100E30
:103A7800EE6AE806FDE1000EF86E000109EF15F0A8
:103A88000D6E83840D5046EC1CF00D6E0D5032EC1B
:103A980018F012000E6E0E50C00F5AEC1DF01200F6
:103AA8000E6E0E50800F5AEC1DF012000D6E8394AE
:103AB8000D5032EC18F012000C0E5AEC1DF01200EA
:103AC800060E5AEC1DF01200010E5AEC1DF0120001
:0A3AD800380E5AEC1DF01200120027
:020000040020DA
:08000000FFFFFFFFFFFFFFFF00
:020000040030CA
:0E000000000C1E1EFF0181FF0FC00FE00F401D
:00000001FF
