:020000040000FA
:040000002DEF0EF0E2
:10080000004572726F722C20C16E67756C6F206527
:1008100072726F6E656F200D0A00474F4C410000E9
:1008200016EC0EF0010ECEEC0DF01A0E026E080E54
:10083000036EECEC05F09EAA20EF04F022EF04F02A
:100840001BEF04F09E9A3BEC0EF0076E68EF04F08D
:1008500027EC0CF01BEF04F0B7EC05F01BEF04F0F5
:1008600082EC05F01BEF04F008EC05F01BEF04F040
:10087000B3EC04F01BEF04F08BEC0DF01BEF04F075
:10088000B8EC0BF01BEF04F0EFEC0DF01BEF04F0F5
:10089000B9EC0DF01BEF04F0A4EC0DF01BEF04F02D
:1008A00049EC0BF01BEF04F04DEC05F01BEF04F0EE
:1008B000E2EC0DF01BEF04F06EEC0DF01BEF04F01A
:1008C000010E026E080E036EECEC05F01BEF04F057
:1008D0000750046E056A0550000AD8B472EF04F0A0
:1008E00060EF04F00450310AD8B43CEF04F0030A7E
:1008F000D8B440EF04F0010AD8B444EF04F0070A7A
:10090000D8B448EF04F0750AD8B428EF04F0030A0D
:10091000D8B42CEF04F0010AD8B430EF04F0070A81
:10092000D8B434EF04F0010AD8B438EF04F0100A58
:10093000D8B45CEF04F0030AD8B45CEF04F0010A09
:10094000D8B458EF04F00F0AD8B454EF04F0010AF9
:10095000D8B450EF04F0030AD8B44CEF04F060EFC1
:1009600004F000EF00F0BBEC06F0E3EC06F0DFEC87
:1009700008F0A2EC09F06BEC06F093EC06F07BECCF
:1009800009F03EEC0AF054EC09F017EC0AF091EC97
:1009900008F0B8EC08F054EC09F017EC0AF07BEC26
:1009A00009F03EEC0AF06BEC06F093EC06F0DFEC9D
:1009B00008F0A2EC09F0BBEC06F0E3EC06F006EC64
:1009C00009F0C9EC09F02DEC09F0F0EC09F04CEC61
:1009D0000CF071EC0CF0FDEC0AF023EC0BF096EC53
:1009E0000CF0BAEC0CF0FDEC0AF023EC0BF04CEC44
:1009F0000CF071EC0CF02DEC09F0F0EC09F006ECC9
:100A000009F0C9EC09F0BBEC06F0E3EC06F01200CB
:100A1000BBEC06F0E3EC06F0DFEC08F0A2EC09F02A
:100A20006BEC06F093EC06F07BEC09F03EEC0AF080
:100A300054EC09F017EC0AF07BEC09F03EEC0AF0FC
:100A40006BEC06F093EC06F0DFEC08F0A2EC09F09A
:100A5000BBEC06F0E3EC06F006EC09F0C9EC09F09B
:100A60002DEC09F0F0EC09F04CEC0CF071EC0CF012
:100A7000FDEC0AF023EC0BF04CEC0CF071EC0CF0FC
:100A80002DEC09F0F0EC09F006EC09F0C9EC09F0E6
:100A9000BBEC06F0E3EC06F01200DEEC0CF026EC0A
:100AA0000DF065EC0AF08BEC0AF06EEC0BF093ECB9
:100AB0000BF080EC07F0CEEC07F059EC07F0A7EC58
:100AC00007F01BEC06F043EC06F00BEC07F032EC01
:100AD00007F01BEC06F043EC06F059EC07F0A7EC2E
:100AE00007F080EC07F0CEEC07F06EEC0BF093EC27
:100AF0000BF065EC0AF08BEC0AF0DEEC0CF026EC67
:100B00000DF01200BBEC06F0E3EC06F0DFEC08F0B1
:100B1000A2EC09F06BEC06F093EC06F07BEC09F02C
:100B20003EEC0AF06BEC06F093EC06F0DFEC08F01C
:100B3000A2EC09F0BBEC06F0E3EC06F006EC09F0E1
:100B4000C9EC09F02DEC09F0F0EC09F04CEC0CF0DC
:100B500071EC0CF02DEC09F0F0EC09F006EC09F06A
:100B6000C9EC09F0BBEC06F0E3EC06F01200BBECBC
:100B700006F0E3EC06F0DFEC08F0A2EC09F06BEC19
:100B800006F093EC06F07BEC09F03EEC0AF06BEC1F
:100B900006F093EC06F0DFEC08F0A2EC09F0BBECF9
:100BA00006F0E3EC06F006EC09F0C9EC09F02DECD8
:100BB00009F0F0EC09F04CEC0CF071EC0CF02DECC1
:100BC00009F0F0EC09F006EC09F0C9EC09F0BBEC17
:100BD00006F0E3EC06F0120002EF06F002C0F6FFAA
:100BE00003C0F7FFF86A070EF76403D00800F5505A
:100BF00005D0F6CFE9FFF7CFEAFFEF5022EC0EF079
:100C0000024A032A02C0F6FF03C0F7FFF86A070E84
:100C1000F76403D00800F55005D0F6CFE9FFF7CF11
:100C2000EAFFEF500009D8A418EF06F01AEF06F01B
:100C3000EEEF05F01200000E036E000E026E8A90B9
:100C40008A80040E016E5F0EE82EFED7012EFCD7BF
:100C500000F08A90310E016E910EE82EFED7012E23
:100C6000FCD700F0024A032A03BE40EF06F003500F
:100C700009E1100E025CD8A040EF06F042EF06F04A
:100C80001FEF06F01200000E036E000E026E8A9235
:100C90008A82040E016E5F0EE82EFED7012EFCD76D
:100CA00000F08A92310E016E910EE82EFED7012ED1
:100CB000FCD700F0024A032A03BE68EF06F0035097
:100CC00009E1100E025CD8A068EF06F06AEF06F0AA
:100CD00047EF06F01200000E036E000E026E8A94BB
:100CE0008A84050E016E550EE82EFED7012EFCD724
:100CF00000F08A94300E016E9B0EE82EFED7012E76
:100D0000FCD700F0024A032A03BE90EF06F003501E
:100D100009E1100E025CD8A090EF06F092EF06F009
:100D20006FEF06F01200000E036E000E026E8A9640
:100D30008A86050E016E550EE82EFED7012EFCD7D1
:100D400000F08A96300E016E9B0EE82EFED7012E23
:100D5000FCD700F0024A032A03BEB8EF06F00350A6
:100D600009E1100E025CD8A0B8EF06F0BAEF06F069
:100D700097EF06F01200000E036E000E026E8A94CA
:100D80008A84040E016E5F0EE82EFED7012EFCD77A
:100D900000F08A94310E016E910EE82EFED7012EDE
:100DA000FCD700F0024A032A03BEE0EF06F003502E
:100DB00009E1100E025CD8A0E0EF06F0E2EF06F0C9
:100DC000BFEF06F01200000E036E000E026E8A9650
:100DD0008A86040E016E5F0EE82EFED7012EFCD728
:100DE00000F08A96310E016E910EE82EFED7012E8C
:100DF000FCD700F0024A032A03BE08EF07F00350B5
:100E000009E1100E025CD8A008EF07F00AEF07F026
:100E1000E7EF06F01200000E036E000E026E8A90DD
:100E20008A80040E016EE40EE82EFED7012EFCD758
:100E300000D08A90310E016E0C0EE82EFED7012EE6
:100E4000FCD7024A032A03BE2FEF07F0035009E143
:100E5000100E025CD8A02FEF07F031EF07F00FEF74
:100E600007F01200000E036E000E026E8A928A8254
:100E7000040E016EE40EE82EFED7012EFCD700D042
:100E80008A92310E016E0C0EE82EFED7012EFCD791
:100E9000024A032A03BE56EF07F0035009E1100E81
:100EA000025CD8A056EF07F058EF07F036EF07F0D6
:100EB0001200000E036E000E026E8A908A80040EED
:100EC000016E080EE82EFED7012EFCD700D08A90C6
:100ED000310E016EE80EE82EFED7012EFCD7024A35
:100EE000032A03BE7DEF07F0035009E1100E025CF8
:100EF000D8A07DEF07F07FEF07F05DEF07F012005D
:100F0000000E036E000E026E8A908A80030E016E40
:100F1000980EE82EFED7012EFCD78A90320E016E75
:100F2000580EE82EFED7012EFCD700D0024A032A25
:100F300003BEA4EF07F0035009E1100E025CD8A035
:100F4000A4EF07F0A6EF07F084EF07F01200000E01
:100F5000036E000E026E8A928A82040E016E080EE3
:100F6000E82EFED7012EFCD700D08A92310E016EFA
:100F7000E80EE82EFED7012EFCD7024A032A03BE54
:100F8000CBEF07F0035009E1100E025CD8A0CBEFC5
:100F900007F0CDEF07F0ABEF07F01200000E036E85
:100FA000000E026E8A928A82030E016E980EE82E5F
:100FB000FED7012EFCD78A92320E016E580EE82E13
:100FC000FED7012EFCD700D0024A032A03BEF2EF5F
:100FD00007F0035009E1100E025CD8A0F2EF07F011
:100FE000F4EF07F0D2EF07F01200000E036E000ED0
:100FF000026E8A9A8A8A040E016E080EE82EFED7C7
:10100000012EFCD700D08A9A310E016EE80EE82E30
:10101000FED7012EFCD7024A032A03BE19EF08F0BF
:10102000035009E1100E025CD8A019EF08F01BEF85
:1010300008F0F9EF07F01200000E036E000E026ECA
:101040008A9A8A8A030E016E980EE82EFED7012E28
:10105000FCD78A9A320E016E580EE82EFED7012E6A
:10106000FCD700D0024A032A03BE40EF08F0035029
:1010700009E1100E025CD8A040EF08F042EF08F042
:1010800020EF08F01200000E036E000E026E8A9828
:101090008A88040E016E080EE82EFED7012EFCD7BA
:1010A00000D08A98310E016EE80EE82EFED7012E90
:1010B000FCD7024A032A03BE67EF08F0035009E198
:1010C000100E025CD8A067EF08F069EF08F047EF58
:1010D00008F01200000E036E000E026E8A988A88D5
:1010E000030E016E980EE82EFED7012EFCD78A98CB
:1010F000320E016E580EE82EFED7012EFCD700D01E
:10110000024A032A03BE8EEF08F0035009E1100ED5
:10111000025CD8A08EEF08F090EF08F06EEF08F0B8
:101120001200000E036E000E026E8A948A84060E70
:10113000016EA20EE82EFED7012EFCD78A942F0E48
:10114000016E4E0EE82EFED7012EFCD700D0024ACB
:10115000032A03BEB5EF08F0035009E1100E025C4C
:10116000D8A0B5EF08F0B7EF08F095EF08F012003F
:10117000000E036E000E026E8A968A86060E016EBF
:10118000A20EE82EFED7012EFCD78A962F0E016EF6
:101190004E0EE82EFED7012EFCD700D0024A032ABD
:1011A00003BEDCEF08F0035009E1100E025CD8A08A
:1011B000DCEF08F0DEEF08F0BCEF08F01200000EE4
:1011C000036E000E026E8A948A84040E016EE40E91
:1011D000E82EFED7012EFCD700D08A94310E016E86
:1011E0000C0EE82EFED7012EFCD7024A032A03BEBE
:1011F00003EF09F0035009E1100E025CD8A003EFE1
:1012000009F005EF09F0E3EF08F01200000E036E9D
:10121000000E026E8A948A84040E016E080EE82E77
:10122000FED7012EFCD700D08A94310E016EE80E55
:10123000E82EFED7012EFCD7024A032A03BE2AEF6E
:1012400009F0035009E1100E025CD8A02AEF09F062
:101250002CEF09F00AEF09F01200000E036E000EE9
:10126000026E8A948A84030E016E980EE82EFED7D1
:10127000012EFCD78A94320E016E580EE82EFED74E
:10128000012EFCD700D0024A032A03BE51EF09F019
:10129000035009E1100E025CD8A051EF09F053EFA2
:1012A00009F031EF09F01200000E036E000E026E1D
:1012B0008A948A84060E016E300EE82EFED7012E27
:1012C000FCD700D08A942F0E016EC00EE82EFED7F8
:1012D000012EFCD7024A032A03BE78EF09F003501F
:1012E00009E1100E025CD8A078EF09F07AEF09F05E
:1012F00058EF09F01200000E036E000E026E8A9481
:101300008A84050E016EC00EE82EFED7012EFCD792
:101310008A94300E016E300EE82EFED7012EFCD7D7
:1013200000D0024A032A03BE9FEF09F0035009E1EF
:10133000100E025CD8A09FEF09F0A1EF09F07FEF3B
:1013400009F01200000E036E000E026E8A968A8665
:10135000040E016EE40EE82EFED7012EFCD700D05D
:101360008A96310E016E0C0EE82EFED7012EFCD7A8
:10137000024A032A03BEC6EF09F0035009E1100E2A
:10138000025CD8A0C6EF09F0C8EF09F0A6EF09F09B
:101390001200000E036E000E026E8A968A86040EFC
:1013A000016E080EE82EFED7012EFCD700D08A96DB
:1013B000310E016EE80EE82EFED7012EFCD7024A50
:1013C000032A03BEEDEF09F0035009E1100E025CA1
:1013D000D8A0EDEF09F0EFEF09F0CDEF09F0120022
:1013E000000E036E000E026E8A968A86030E016E50
:1013F000980EE82EFED7012EFCD78A96320E016E8B
:10140000580EE82EFED7012EFCD700D0024A032A40
:1014100003BE14EF0AF0035009E1100E025CD8A0DD
:1014200014EF0AF016EF0AF0F4EF09F01200000EC4
:10143000036E000E026E8A968A86060E016E300ECC
:10144000E82EFED7012EFCD700D08A962F0E016E13
:10145000C00EE82EFED7012EFCD7024A032A03BE97
:101460003BEF0AF0035009E1100E025CD8A03BEFFD
:101470000AF03DEF0AF01BEF0AF01200000E036EB7
:10148000000E026E8A968A86050E016EC00EE82E48
:10149000FED7012EFCD78A96300E016E300EE82E54
:1014A000FED7012EFCD700D0024A032A03BE62EF0A
:1014B0000AF0035009E1100E025CD8A062EF0AF0B6
:1014C00064EF0AF042EF0AF01200000E036E000E05
:1014D000026E8A908A80BF0E00D000D0E82EFCD722
:1014E00000D000F08A90330E016E340EE82EFED745
:1014F000012EFCD7024A032A03BE88EF0AF00350EC
:1015000009E1100E025CD8A088EF0AF08AEF0AF019
:1015100069EF0AF01200000E036E000E026E8A924E
:101520008A82BF0E00D000D0E82EFCD700D000F099
:101530008A92330E016E340EE82EFED7012EFCD7B0
:10154000024A032A03BEAEEF0AF0035009E1100E6F
:10155000025CD8A0AEEF0AF0B0EF0AF08FEF0AF00D
:101560001200000E036E000E026E8A9A8A8ABF0E67
:1015700000D000D0E82EFCD700D000F08A9A330EBD
:10158000016E340EE82EFED7012EFCD7024A032A44
:1015900003BED4EF0AF0035009E1100E025CD8A09C
:1015A000D4EF0AF0D6EF0AF0B5EF0AF01200000E01
:1015B000036E000E026E8A988A88BF0E00D000D09B
:1015C000E82EFCD700D000F08A98330E016E340E5E
:1015D000E82EFED7012EFCD7024A032A03BEFAEFFB
:1015E0000AF0035009E1100E025CD8A0FAEF0AF0ED
:1015F000FCEF0AF0DBEF0AF01200000E036E000EA3
:10160000026E8A948A84BF0E00D000D0E82EFCD7E8
:1016100000D000F08A94330E016E340EE82EFED70F
:10162000012EFCD7024A032A03BE20EF0BF0035021
:1016300009E1100E025CD8A020EF0BF022EF0BF0B6
:1016400001EF0BF01200000E036E000E026E8A9680
:101650008A86BF0E00D000D0E82EFCD700D000F064
:101660008A96330E016E340EE82EFED7012EFCD77B
:10167000024A032A03BE46EF0BF0035009E1100EA5
:10168000025CD8A046EF0BF048EF0BF027EF0BF011
:101690001200DEEC0CF026EC0DF065EC0AF08BECA1
:1016A0000AF06EEC0BF093EC0BF080EC07F0CEEC54
:1016B00007F059EC07F0A7EC07F080EC07F0CEEC50
:1016C00007F06EEC0BF093EC0BF065EC0AF08BEC92
:1016D0000AF0DEEC0CF026EC0DF01200000E036EAA
:1016E000000E026E8A908A80ED0E00D000D0E82EA7
:1016F000FCD700F08A90320E016ECA0EE82EFED79B
:10170000012EFCD7024A032A03BE90EF0BF00350D0
:1017100009E1100E025CD8A090EF0BF092EF0BF0F5
:1017200072EF0BF01200000E036E000E026E8A9232
:101730008A82ED0E00D000D0E82EFCD700F08A920D
:10174000320E016ECA0EE82EFED7012EFCD7024AD9
:10175000032A03BEB5EF0BF0035009E1100E025C43
:10176000D8A0B5EF0BF0B7EF0BF097EF0BF012002E
:101770004AEC0DF002EC0DF0D7EC0AF0B1EC0AF0F7
:1017800002EC0CF0DDEC0BF06AEC08F01CEC08F05D
:1017900043EC08F0F5EC07F06AEC08F01CEC08F0FC
:1017A00002EC0CF0DDEC0BF0D7EC0AF0B1EC0AF037
:1017B0004AEC0DF002EC0DF01200000E036E000E6C
:1017C000026E8A9A8A8AED0E00D000D0E82EFCD7ED
:1017D00000F08A9A320E016ECA0EE82EFED7012E54
:1017E000FCD7024A032A03BEFFEF0BF0035009E1C6
:1017F000100E025CD8A0FFEF0BF001EF0CF0E1EF50
:101800000BF01200000E036E000E026E8A988A889A
:10181000ED0E00D000D0E82EFCD700F08A98320EF2
:10182000016ECA0EE82EFED7012EFCD7024A032A0B
:1018300003BE24EF0CF0035009E1100E025CD8A0A7
:1018400024EF0CF026EF0CF006EF0CF01200BBECCE
:1018500006F0E3EC06F0DFEC08F0A2EC09F06BEC2C
:1018600006F093EC06F0DFEC08F0A2EC09F0BBEC1C
:1018700006F0E3EC06F006EC09F0C9EC09F02DECFB
:1018800009F0F0EC09F006EC09F0C9EC09F0BBEC4A
:1018900006F0E3EC06F01200000E036E000E026E7E
:1018A0008A948A84ED0E00D000D0E82EFCD700F098
:1018B0008A94320E016ECA0EE82EFED7012EFCD796
:1018C000024A032A03BE6EEF0CF0035009E1100E2A
:1018D000025CD8A06EEF0CF070EF0CF050EF0CF043
:1018E0001200000E036E000E026E8A968A86ED0EBE
:1018F00000D000D0E82EFCD700F08A96320E016EA0
:10190000CA0EE82EFED7012EFCD7024A032A03BED8
:1019100093EF0CF0035009E1100E025CD8A093EF96
:101920000CF095EF0CF075EF0CF01200000E036E4A
:10193000000E026E8A948A84C80E00D0E82EFDD76D
:101940008A94330E016EA50EE82EFED7012EFCD729
:1019500000F0024A032A03BEB7EF0CF0035009E17E
:10196000100E025CD8A0B7EF0CF0B9EF0CF09AEFB4
:101970000CF01200000E036E000E026E8A968A862C
:10198000C80E00D0E82EFDD78A96330E016EA50E44
:10199000E82EFED7012EFCD700F0024A032A03BE30
:1019A000DBEF0CF0035009E1100E025CD8A0DBEF76
:1019B0000CF0DDEF0CF0BEEF0CF01200000E036E29
:1019C000000E026E8A908A80C80E00D0E82EFDD7E5
:1019D0008A90330E016EA50EE82EFED7012EFCD79D
:1019E00000F0024A032A03BEFFEF0CF0035009E1A6
:1019F000100E025CD8A0FFEF0CF001EF0DF0E2EF4B
:101A00000CF01200000E036E000E026E8A9A8A8A93
:101A1000C80E00D0E82EFDD78A9A330E016EA50EAF
:101A2000E82EFED7012EFCD700F0024A032A03BE9F
:101A300023EF0DF0035009E1100E025CD8A023EF54
:101A40000DF025EF0DF006EF0DF01200000E036E05
:101A5000000E026E8A928A82C80E00D0E82EFDD750
:101A60008A92330E016EA50EE82EFED7012EFCD70A
:101A700000F0024A032A03BE47EF0DF0035009E1CC
:101A8000100E025CD8A047EF0DF049EF0DF02AEFE1
:101A90000DF01200000E036E000E026E8A988A8806
:101AA000C80E00D0E82EFDD78A98330E016EA50E21
:101AB000E82EFED7012EFCD700F0024A032A03BE0F
:101AC0006BEF0DF0035009E1100E025CD8A06BEF34
:101AD0000DF06DEF0DF04EEF0DF01200DEEC0CF09E
:101AE00026EC0DF06EEC0BF093EC0BF059EC07F0DC
:101AF000A7EC07F00BEC07F032EC07F059EC07F01D
:101B0000A7EC07F06EEC0BF093EC0BF0DEEC0CF0B6
:101B100026EC0DF012004AEC0DF002EC0DF0D7ECC3
:101B20000AF0B1EC0AF002EC0CF0DDEC0BF002EC88
:101B30000CF0DDEC0BF0D7EC0AF0B1EC0AF04AEC5B
:101B40000DF002EC0DF01200DEEC0CF026EC0DF0C6
:101B500065EC0AF08BEC0AF06EEC0BF093EC0BF0FA
:101B600065EC0AF08BEC0AF0DEEC0CF026EC0DF0E4
:101B700012004AEC0DF002EC0DF002EC0CF0DDEC82
:101B80000BF043EC08F0F5EC07F002EC0CF0DDECA8
:101B90000BF04AEC0DF002EC0DF01200026E9E9874
:101BA0000250FF0A016E013A9F500118EF0B011815
:101BB0009F6E9D889E9A02B002D09F9A01D09F8A04
:101BC0009D8A1200DEEC0CF026EC0DF06EEC0BF0B2
:101BD00093EC0BF0DEEC0CF026EC0DF012004AEC6E
:101BE0000DF002EC0DF002EC0CF0DDEC0BF04AEC29
:101BF0000DF002EC0DF01200DEEC0CF026EC0DF016
:101C0000BBEC06F0E3EC06F04AEC0DF002EC0DF054
:101C10001200948E949C0C0EAF6EAB8EAC98B8965E
:101C2000AC94AC9CAC8AAB9CAB881200700ED31207
:101C30000F0EC112D08E34EC0EF0FCEC0DF009EC5E
:101C40000EF01200016EACA228EF0EF02AEF0EF09B
:101C500023EF0EF001C0ADFF1200076A066A000E06
:101C6000F86E000110EF04F0939093929394939682
:0A1C70009398939A1200AE501200F0
:020000040020DA
:08000000FFFFFFFFFFFFFFFF00
:020000040030CA
:0E0000000409191EFF8181FF0FC00FE00F40A1
:00000001FF
