:1000000071C000008EC000008CC000008AC00000DB
:1000100088C0000086C0000084C0000082C00000CC
:1000200080C000007EC000007CC000007AC00000DC
:1000300078C0000076C0000074C0000072C00000EC
:1000400070C000006EC000006CC000006AC00000FC
:1000500068C0000066C0000064C0000062C000000C
:1000600060C000005EC000005CC000005AC000001C
:1000700058C0000056C0000054C0000052C000002C
:1000800050C000004EC000004CC000004AC000003C
:1000900048C0000046C0000044C0000042C000004C
:1000A00040C000003EC000003CC000003AC000005C
:1000B00038C0000036C0000034C0000032C000006C
:1000C00030C000002EC000002CC000002AC000007C
:1000D00028C0000026C0000024C0000022C000008C
:1000E00020C0000011241FBECFEFD1E2DEBFCDBF84
:1000F00000E00CBF12E0A0E0B2E0E4E0F3E000E0DA
:100100000BBF02C007900D92AC30B107D9F722E0C7
:10011000ACE0B2E001C01D92A131B207E1F7B4D06A
:10012000EFC06ECF8091060191E0282F207486FDEC
:1001300090E0211107C081E020910102222319F0F3
:1001400080E001C080E09093010208958091060153
:10015000982F9095991F9927991F88233CF081E04B
:1001600020910002222319F080E001C080E09093EA
:10017000000208958FEF80BB11BAE7E0F1E08081C3
:100180008F608083E8E0F1E08081807F8083089544
:10019000FF920F931F93CF93DF93AC01CDE0D2E09A
:1001A00001E112E0F12C9A01ADECBCEC9AD09695ED
:1001B000879596958795969587959C01220F331F75
:1001C000880F991F880F991F880F991F820F931FFF
:1001D0009A01281B390BC9012A3030F49927FC01F8
:1001E000EE5FFD4F808101C08F2D89939A01ADECA8
:1001F000BCEC77D0AC0156954795569547955695EA
:100200004795C017D10779F6DF91CF911F910F91D4
:10021000FF900895CF93DF9300D01F92CDB7DEB744
:10022000198281E08A8382E08B8383E08C83A8E05B
:10023000B1E08C91807F8C93E0910C02F0E0E35F61
:10024000FD4F808181BB2C9180910C02FE01E80F53
:10025000F11D81E090E0018002C0880F991F0A948F
:10026000E2F7822B8C9380910C028F5F843019F01F
:1002700080930C0202C010920C020F900F900F900E
:100280000F90DF91CF910895859A74DFD0E010E24E
:1002900049DF882349F081B3812781BB8FE39FE148
:1002A0000197F1F700C0000051DF882361F081B3AE
:1002B0008F7D81BB882321F0DF3F21F0DF5F03C00A
:1002C000D15001C0D0E08D2F90E062DFC6E0A2DF08
:1002D0008FE79EE30197F1F700C00000C150B9F726
:1002E000D7CFA29FB001B39FC001A39F700D811D06
:1002F0001124911DB29F700D811D1124911D08952F
:04030000F894FFCF9F
:0C03040001013F065B4F666D7D077F6FB7
:00000001FF
