:020000040000FA
:0400000025EF00F0F8
:060008003982D4ED06F080
:100018003980D8CF01F0E8CF02F0E0CF03F09EACF2
:1000280018EF00F01AEF00F01DEF00F09E9C010E93
:10003800346E03C0E0FF02C0E8FF01C0D8FF39906A
:060048001000B4EF06F009
:1008000000413D5B00423D5B00433D5B00443D5B7E
:1008100000453D5B00463D5B000A0D005D3B002C42
:10082000000066EC07F0F0EC06F09592D08ED58EC5
:10083000000E356E8392030E296E8A0E286E560EB8
:10084000E82EFED7282EFCD7292EFAD7E9EF04F0A0
:100850003404D8A42EEF04F030EF04F0E9EF04F0F4
:10086000000E346E000E1FEC07F03750020D0C0E18
:10087000F324D96E060EF420DA6E04C0DEFF05C044
:10088000DDFF140E3718D8A448EF04F04AEF04F047
:100890004BEF04F08382372AFA0E3718D8A453EFAF
:1008A00004F055EF04F0E9EF04F0000E376E000E8F
:1008B000386E8BEF04F0010E056E080E066E85ECA7
:1008C00006F0B0EF04F0050E056E080E066E85EC1E
:1008D00006F0B0EF04F0090E056E080E066E85EC0A
:1008E00006F0B0EF04F00D0E056E080E066E85ECF6
:1008F00006F0B0EF04F0110E056E080E066E85ECE2
:1009000006F0B0EF04F0150E056E080E066E85ECCD
:1009100006F0B0EF04F03550286E296A2950000A1D
:10092000D8B495EF04F0B0EF04F02850000AD8B422
:100930005BEF04F0010AD8B463EF04F0030AD8B403
:100940006BEF04F0010AD8B473EF04F0070AD8B4CF
:100950007BEF04F0010AD8B483EF04F0B0EF04F0A9
:10096000000E366E3650020D0C0EF324D96E060EB4
:10097000F420DA6EDECF28F0DDCF29F028C012F0A7
:1009800029C013F0146A156A8FEC05F0F90E366071
:10099000CCEF04F0CEEF04F0D4EF04F01F0E056EA0
:1009A000080E066E85EC06F0362AF90E3664DBEF8B
:1009B00004F0DDEF04F0B2EF04F01C0E056E080E3B
:1009C000066E85EC06F0190E056E080E066E85ECB7
:1009D00006F03850D8A4EFEF04F0F1EF04F028EF60
:1009E00004F0010E386E352A050E3564FAEF04F076
:1009F000FCEF04F01AEF04F0060E3518D8B403EF3C
:100A000005F005EF05F0FCEF04F018EF04F025EF1A
:100A100000F0000E0D6E0BBE12EF05F010EF05F0AA
:100A20001CEF05F00B1E0A1E091E086C000E0922A1
:100A30000A220B22010E0D6E07BE23EF05F021EFF7
:100A400005F02DEF05F0071E061E051E046C000EB6
:100A5000052206220722010E0D1A000E0E6E000E50
:100A60000F6E000E106E000E116E085009100A1065
:100A70000B10D8B43EEF05F040EF05F076EF05F02F
:100A8000010E0C6E4AEF05F0D890083609360A368A
:100A90000B360C2A0BAE4FEF05F051EF05F044EF8B
:100AA00005F0D8900E360F36103611360850045C1B
:100AB000095005580A5006580B500758D8A063EF44
:100AC00005F065EF05F06EEF05F00850045E095083
:100AD000055A0A50065A0B50075A0E80D8900B320E
:100AE0000A32093208320C2E51EF05F00D50D8B4FD
:100AF0007CEF05F07EEF05F086EF05F0111E101E6D
:100B00000F1E0E6C000E0F22102211220EC004F0D8
:100B10000FC005F010C006F011C007F01200000E63
:100B2000266E0B0E276E15BE9AEF05F098EF05F0B6
:100B3000A4EF05F0010E266E151E141E131E126C76
:100B4000000E132214221522000E216E270612C059
:100B500004F013C005F014C006F015C007F00A0E2B
:100B6000086E000E096E000E0A6E000E0B6E0FEC82
:100B700006F0300E0424226E000E0520236E000EB7
:100B80000620246E000E0720256E160E2724D96E2F
:100B9000DA6A000EDA2222C0DFFF270612C004F054
:100BA00013C005F014C006F015C007F00A0E086E59
:100BB000000E096E000E0A6E000E0B6E09EC05F0B9
:100BC00004C012F005C013F006C014F007C015F001
:100BD0001250131014101510D8A4F1EF05F0F3EF14
:100BE00005F0A7EF05F02650D8B4F9EF05F0FBEFBC
:100BF00005F005EF06F0160E2724D96EDA6A000E0E
:100C0000DA222D0EDF6E06EF06F0272A160E2724B5
:100C1000056E066A000E062285EC06F01200000E34
:100C20000D6E07BE18EF06F016EF06F022EF06F085
:100C3000071E061E051E046C000E05220622072252
:100C4000010E0D6E0BBE29EF06F027EF06F031EF17
:100C500006F00B1E0A1E091E086C000E09220A224D
:100C60000B22085009100A100B10D8B43AEF06F006
:100C70003CEF06F06CEF06F0010E0C6E46EF06F04E
:100C8000D890083609360A360B360C2A0BAE4BEFD5
:100C900006F04DEF06F040EF06F00850045C0950F6
:100CA00005580A5006580B500758D8A05AEF06F0BE
:100CB0005CEF06F064EF06F00850045E0950055A38
:100CC0000A50065A0B50075AD8900B320A32093292
:100CD00008320C2E4DEF06F00D50D8B472EF06F02E
:100CE00074EF06F07CEF06F0071E061E051E046C6E
:100CF000000E05220622072204C004F005C005F0FC
:100D000006C006F007C007F012009BEF06F005C012
:100D1000F6FF06C0F7FFF86A070EF76403D0080075
:100D2000F55005D0F6CFE9FFF7CFEAFFEF5072ECB0
:100D300007F0054A062A05C0F6FF06C0F7FFF86A65
:100D4000070EF76403D00800F55005D0F6CFE9FF91
:100D5000F7CFEAFFEF500009D8A4B1EF06F0B3EFE8
:100D600006F087EF06F01200040EF66E0F0EF76E17
:100D7000000EF86E0900F5CF38F006EE0CF011EE1B
:100D8000F4F0EE6AE550E150FCE1E250FAE100EEE9
:100D90002AF00E0EEE6AE806FDE139903992000E57
:100DA000F86E000111EF04F00600F2A4DAEF06F08D
:100DB000DCEF06F0EEEF06F07DEC07F02E4A2F2A6E
:100DC0002E042F10D8A4E7EF06F0E9EF06F0EEEFBF
:100DD00006F0000E2F6E000E2E6EC28239921100A8
:100DE0008380030E056E8A0E046E560EE82EFED723
:100DF000042EFCD7052EFAD78390020E056E040E42
:100E0000046EBA0EE82EFED7042EFCD7052EFAD7B4
:100E100000D0120092809E9C9D8C9F9CC050C70B5E
:100E20001009C06EC050F80B0509C06EC08EC150CD
:100E3000F00B0D09C16ECF0EC116C2801200086EF4
:100E400008C006F006460646C2500618C30B061830
:100E5000C26EC450076E066AC3500624046E000EAC
:100E60000720056E1200F28ED08EF28CD59EF29481
:100E7000F28AF184F19CD768D80ED66ED59CD586BF
:100E8000D59AD598D550F80B0109D56E12009494D7
:100E9000CA94BD50F00B0C09BD6E870ECA16FC0E2D
:100EA000CA16F90ECB6E140EBE6E080EBF6ECA8443
:100EB0001200948E949C230EAF6EAB8EAC98B886C5
:100EC000AC84AC9CAC8AAB9CAB88120095900AECCD
:100ED00007F047EC07F059EC07F033EC07F0700E21
:100EE000D3121200046EACA278EF07F07AEF07F08D
:100EF00073EF07F004C0ADFF1200D768D80ED66EAE
:050F0000F29412000153
:020000040020DA
:08000000FFFFFFFFFFFFFFFF00
:020000040030CA
:0E0000000009191EFF8181FF0FC00FE00F40A5
:00000001FF
