:020000040000FA
:0400000027EF00F0F6
:06000800358232ED07F025
:100018003580D8CF01F0E8CF02F0E0CF03F09EACF6
:1000280018EF00F01AEF00F01FEF00F09E9C010E91
:10003800326E1FEF00F003C0E0FF02C0E8FF01C00E
:0A004800D8FF3590100053EF07F0C9
:1008000000436F6E657863696F6E20457374616233
:100810006C6563696461200D0A204275656E6F73B3
:1008200020746172646573200D0A005D3B200A0D1F
:1008300000413D5B0000C4EC07F0A2EC07F072EC55
:1008400007F0010E056E080E066EFFEC06F0D58E61
:100850002AEF04F03250D8B430EF04F032EF04F055
:100860002AEF04F0000E326ED3EC07F004C02FF034
:1008700005C030F02FC004F030C005F08BEC07F05D
:10088000316E3150D8B447EF04F049EF04F02AEF4D
:1008900004F0000E2C6E000E2B6E2C5009E1500E51
:1008A0002B5CD8A056EF04F058EF04F060EF04F092
:1008B0008AEF04F08AEF04F060EF04F060EF04F0D8
:1008C0003250D8B466EF04F068EF04F060EF04F043
:1008D0006AEF04F0000E326ED3EC07F0D8902B34A0
:1008E000D96E2C34DA6E600ED926000EDA2204C0DE
:1008F000DEFF05C0DDFF2B4A2C2A2C5009E1500EEB
:100900002B5CD8A086EF04F088EF04F060EF04F0D1
:100910008AEF04F0000E2C6E000E2B6E2C5009E1B5
:10092000500E2B5CD8A097EF04F099EF04F09DEFE8
:1009300004F0CFEF04F0CFEF04F0D8902B34D96E51
:100940002C34DA6E600ED926000EDA223350DE5CCB
:100950003450DE58D8B0AFEF04F0B1EF04F0C0EF80
:1009600004F0D8902B34D96E2C34DA6E600ED92670
:10097000000EDA22DECF33F0DDCF34F0C0EF04F02A
:100980002B4A2C2A2C5009E1500E2B5CD8A0CBEF1F
:1009900004F0CDEF04F09DEF04F0CFEF04F02C5005
:1009A00009E1500E2B5CD8A0D8EF04F0DAEF04F088
:1009B0002AEF04F0310E056E080E066EFFEC06F00D
:1009C000000E2C6E000E2B6E2C5009E1500E2B5C8D
:1009D000D8A0EDEF04F0EFEF04F0F3EF04F027EF11
:1009E00005F027EF05F0D8902B34D96E2C34DA6E51
:1009F000600ED926000EDA22DECF29F0DDCF2AF0F4
:100A000029C012F02AC013F0146A156A3DEC05F0F3
:100A10002C5007E14F0E2B5CD8B011EF05F013EF0F
:100A200005F018EF05F02C0EB5EC07F018EF05F007
:100A30002B4A2C2A2C5009E1500E2B5CD8A023EF16
:100A400005F025EF05F0F3EF04F027EF05F02B0E8E
:100A5000056E080E066EFFEC06F0000E2C6E000E02
:100A60002B6E2AEF04F02AEF04F02AEF04F02AEFAD
:100A700004F02AEF04F027EF00F0000E276E0B0EB3
:100A8000286E15BE48EF05F046EF05F054EF05F06F
:100A9000010E276E151E141E131E126C000E13225B
:100AA0001422152254EF05F02850010D170EF324DF
:100AB000D96E000EF420DA6E000EDF6E280661EFAC
:100AC00005F012C004F013C005F014C006F015C004
:100AD00007F00A0E086E000E096E000E0A6E000E78
:100AE0000B6E75EC06F0300E0424236E000E05200C
:100AF000246E000E0620256E000E0720266E28505C
:100B0000010D170EF324D96E000EF420DA6E23C007
:100B1000DFFF280612C004F013C005F014C006F071
:100B200015C007F00A0E086E000E096E000E0A6E60
:100B3000000E0B6EDBEC05F004C012F005C013F0E4
:100B400006C014F007C015F0125013101410151041
:100B5000D8A4ADEF05F0AFEF05F061EF05F0B1EF10
:100B600005F02750D8B4B7EF05F0B9EF05F0C5EFA1
:100B700005F02850010D170EF324D96E000EF42055
:100B8000DA6E2D0EDF6EC8EF05F0282AC8EF05F0EB
:100B9000410E166EEE0EE82EFED7162EFCD700D0B4
:100BA0002850010D170EF324056E000EF420066E7A
:100BB000FFEC06F01200000E0D6E0BBEE4EF05F028
:100BC000E2EF05F0F0EF05F00B1E0A1E091E086C9F
:100BD000000E09220A220B22010E0D6EF0EF05F025
:100BE00007BEF7EF05F0F5EF05F003EF06F0071E7F
:100BF000061E051E046C000E052206220722010EA9
:100C00000D1A03EF06F0000E0E6E000E0F6E000EB2
:100C1000106E000E116E085009100A100B10D8B497
:100C200014EF06F016EF06F058EF06F0010E0C6E0A
:100C300022EF06F0D890083609360A360B360C2A11
:100C400022EF06F00BAE27EF06F029EF06F01AEFC1
:100C500006F02DEF06F02DEF06F0D8900E360F3689
:100C6000103611360850045C095005580A500658D1
:100C70000B500758D8A03FEF06F041EF06F04CEFBD
:100C800006F00850045E0950055A0A50065A0B50E7
:100C9000075A0E804CEF06F0D8900B320A32093218
:100CA00008320C2E2DEF06F058EF06F058EF06F044
:100CB0000D50D8B45EEF06F060EF06F06AEF06F074
:100CC000111E101E0F1E0E6C000E0F22102211227C
:100CD0006AEF06F00EC004F00FC005F010C006F079
:100CE00011C007F074EF06F01200000E0D6E07BE83
:100CF0007EEF06F07CEF06F08AEF06F0071E061E78
:100D0000051E046C000E052206220722010E0D6E40
:100D10008AEF06F00BBE91EF06F08FEF06F09BEF27
:100D200006F00B1E0A1E091E086C000E09220A227C
:100D30000B229BEF06F0085009100A100B10D8B4D4
:100D4000A4EF06F0A6EF06F0E2EF06F0010E0C6E3F
:100D5000B2EF06F0D890083609360A360B360C2A60
:100D6000B2EF06F00BAEB7EF06F0B9EF06F0AAEF60
:100D700006F0BDEF06F0BDEF06F00850045C095028
:100D800005580A5006580B500758D8A0CAEF06F06D
:100D9000CCEF06F0D6EF06F00850045E0950055A75
:100DA0000A50065A0B50075AD6EF06F0D8900B326D
:100DB0000A32093208320C2EBDEF06F0E2EF06F0DF
:100DC000E2EF06F00D50D8B4E8EF06F0EAEF06F0D7
:100DD000F4EF06F0071E061E051E046C000E052229
:100DE00006220722F4EF06F004C004F005C005F067
:100DF00006C006F007C007F0FEEF06F0120017EF7E
:100E000007F005C0F6FF06C0F7FFF86A070EF764A3
:100E100003D00800F55005D0F6CFE9FFF7CFEAFF81
:100E2000EF50B5EC07F0054A062A17EF07F005C0AA
:100E3000F6FF06C0F7FFF86A070EF76403D0080054
:100E4000F55005D0F6CFE9FFF7CFEAFFEF500009E4
:100E5000D8A42DEF07F02FEF07F001EF07F031EFE7
:100E600007F012000600F2A438EF07F03AEF07F09F
:100E700040EF07F0DFEC07F02D4A2E2A40EF07F095
:100E8000050E2D182E10D8A448EF07F04AEF07F0F2
:100E900051EF07F0000E2E6E000E2D6EC28251EF44
:100EA00007F035921100CA0EF66E0F0EF76E000EA7
:100EB000F86E0900F5CF33F00900F5CF34F000EEFD
:100EC00060F0A00EEE6AE806FDE100EE2BF0080EE1
:100ED000EE6AE806FDE135903592000EF86E0001ED
:100EE0001BEF04F092809E9C9D8C9F9CC050C70B72
:100EF0001009C06EC050F80B0509C06EC08EC150FD
:100F0000F00B0D09C16ECF0EC116C294C296C298E5
:100F1000C29AC2801200000E066EA40E045C010E7E
:100F20000558D8B096EF07F098EF07F09CEF07F060
:100F3000010E066E9EEF07F0000E066E0650A1EF42
:100F400007F01200F28ED08EF28CD59EF294F28AC7
:100F5000FE0ED76E0C0ED66ED59CD586D59AD5983A
:100F6000D550F80B0109D56E1200046EB8EF07F0EA
:100F7000ACA2BDEF07F0BFEF07F0B8EF07F0C1EF8D
:100F800007F004C0ADFF1200948E949C260EAF6E45
:100F9000000EB06EAB8EAC98B886AC84AC9CAC8ABC
:100FA000AB9CAB881200C450076E066AC35006247F
:100FB000046E000E0720056EDEEF07F01200FE0E35
:0C0FC000D76E0C0ED66EF2941200FF03E8
:020000040020DA
:08000000FFFFFFFFFFFFFFFF00
:020000040030CA
:0E000000040C191EFF8181FF0FC00FE00F409E
:00000001FF
