:1000000071C000008EC000008CC000008AC00000DB
:1000100088C0000086C0000084C0000082C00000CC
:1000200080C000007EC000007CC000007AC00000DC
:1000300078C0000076C0000074C0000072C00000EC
:1000400070C000006EC000006CC000006AC00000FC
:1000500068C0000066C0000064C0000062C000000C
:1000600060C000005EC000005CC000005AC000001C
:1000700058C0000056C0000054C0000052C000002C
:1000800050C000004EC000004CC000004AC000003C
:1000900048C0000046C0000044C0000042C000004C
:1000A00040C000003EC000003CC000003AC000005C
:1000B00038C0000036C0000034C0000032C000006C
:1000C00030C000002EC000002CC000002AC000007C
:1000D00028C0000026C0000024C0000022C000008C
:1000E00020C0000011241FBECFEFD1E2DEBFCDBF84
:1000F00000E00CBF12E0A0E0B2E0EAECF2E000E0C9
:100100000BBF02C007900D92AA30B107D9F722E0C9
:10011000AAE0B2E001C01D92AF30B207E1F7AED065
:10012000D2C06ECF8FEF80BB11BAE7E0F1E08081E3
:100130008F608083E8E0F1E08081807F8083089594
:10014000CF93DF93CDB7DEB72A970FB6F894DEBF13
:100150000FBECDBF9AE0E0E0F2E0DE011196019023
:100160000D929A95E1F78A3028F4FE01E80FF11D0F
:10017000818101C080E02A960FB6F894DEBF0FBEE1
:10018000CDBFDF91CF910895EF92FF920F931F9310
:10019000CF93DF93EC010BE012E00F2EFFE0EF2E88
:1001A000F2E0FF2EF02D9E01ADECBCEC7DD09695DB
:1001B000879596958795969587959C01220F331F75
:1001C000880F991F880F991F880F991F820F931FFF
:1001D0002C2F281B822FB4DFF80181938F019E0101
:1001E000ADECBCEC61D0EC01D695C795D695C79522
:1001F000D695C795EE15FF05B1F6DF91CF911F910A
:100200000F91FF90EF900895CF93DF9300D01F924E
:10021000CDB7DEB783E0898382E08A8381E08B8378
:100220001C82A8E0B1E08C91807F8C93E0910A025F
:10023000F0E0E55FFD4F808181BB2C9180910A0247
:10024000FE01E80FF11D81E090E0018002C0880FFF
:10025000991F0A94E2F7822B8C9380910A028F5F98
:10026000843019F080930A0202C010920A020F90A3
:100270000F900F900F90DF91CF91089553DF00E022
:1002800010E0C80181DFC6E0BFDF8FE79EE3019782
:10029000F1F700C00000C150B9F70F5F1F4F0F3FCB
:1002A0009FEF190771F7EBCFA29FB001B39FC00179
:1002B000A39F700D811D1124911DB29F700D811D92
:0A02C0001124911D0895F894FFCF5A
:0A02CA003F065B4F666D7D077F6FF6
:00000001FF
