:020000040000FA
:0400000088EF04F091
:1008000000207069706F0D0A0000FEEC04F0010E0C
:100810001A6E080E1B6E59EC04F0A3EC04F09EAAAD
:1008200014EF04F016EF04F00FEF04F0A3EC04F063
:1008300011EC05F00B6E9E9A42EF04F0000E1F6E55
:10084000000E1E6E0F0E1E24D96E000E1F20DA6ED3
:10085000DF500DEC05F01E4A1F2A1FBE39EF04F0D1
:100860001F5009E10A0E1E5CD8A039EF04F03BEFDF
:1008700004F022EF04F00FEF04F0430EF3EC04F069
:100880000FEF04F00B501C6E1D6A1D50000AD8B407
:100890004CEF04F00FEF04F01C50300AD8B43DEFD9
:1008A00004F0010AD8B41EEF04F00FEF04F000EFDB
:1008B00000F06FEF04F01AC0F6FF1BC0F7FFF86AF4
:1008C000070EF76403D00800F55005D0F6CFE9FF16
:1008D000F7CFEAFFEF50F3EC04F01A4A1B2A1AC0D4
:1008E000F6FF1BC0F7FFF86A070EF76403D0080095
:1008F000F55005D0F6CFE9FFF7CFEAFFEF5000093A
:10090000D8A485EF04F087EF04F05BEF04F0120049
:10091000100EF66E0A0EF76E000EF86E00EE0FF077
:1009200010EE0AF00900F5CFEEFFE550E150FAE1D4
:1009300000EE01F00E0EEE6AE806FDE1000EF86E24
:10094000000105EF04F08380060E1A6E130E196E77
:10095000AE0EE82EFED7192EFCD71A2EFAD78390AA
:10096000020E1A6E040E196EBA0EE82EFED7192E5C
:10097000FCD71A2EFAD700D0120092809E9C9D8C34
:100980009F9CC050C70B1009C06EC050F80B0509E2
:10099000C06EC08EC150F00B0D09C16ECF0EC116D6
:1009A000C2801200F28ED08EF28CD59EF294F28A22
:1009B000F184F19CD768D80ED66ED59CD586D59A91
:1009C000D598D550F80B0109D56E1200948E949CE1
:1009D000230EAF6EAB8EAC98B886AC84AC9CAC8A60
:1009E000AB9CAB881200196EACA2F9EF04F0FBEFE0
:1009F00004F0F4EF04F019C0ADFF12009590BDECC7
:100A000004F0E6EC04F0D2EC04F0700ED312120005
:100A10000A010A050A010A050A01196E19C0ADFF8B
:060A20001200AE501200AE
:020000040020DA
:08000000FFFFFFFFFFFFFFFF00
:020000040030CA
:0E0000000009191EFF8181FF0FC00FE00F40A5
:00000001FF
