:020000040000FA
:0400000007EF00F016
:0A0008005882AFED07F03CEF07F05F
:100800000020202020202020202020202020202008
:09081000202020202020200000FF
:10081A00E6EC07F0F28EF288F2921AEF05F0FAECA3
:10082A0007F0000E566E000E556E000EE0EC07F053
:10083A00010E4F6E080E506E0DEC07F05550E0ECAD
:10084A0007F0370E4F6E000E506E0DEC07F0040ED7
:10085A00526E8E0E516E120EE82EFED7512EFCD716
:10086A00522EFAD700D0554A562A565009E1100E90
:10087A00555CD8A043EF04F045EF04F01AEF04F0FA
:10088A001AEF05F0FAEC07F0000E566E000E556EE0
:10089A00000EE0EC07F0010E4F6E080E506E0DECE4
:1008AA0007F05550E0EC07F0010E4F6E000E506E47
:1008BA000DEC07F0040E526E8E0E516E120EE82EDB
:1008CA00FED7512EFCD7522EFAD700D0000EDAEC02
:1008DA0007F0010E4F6E080E506E0DEC07F05550E2
:1008EA00DAEC07F02B0E4F6E000E506E0DEC07F08F
:1008FA00040E526E8E0E516E120EE82EFED7512E37
:10090A00FCD7522EFAD700D0554A562A565009E13A
:10091A00100E555CD8A094EF04F096EF04F04DEF5A
:10092A0004F01AEF05F0FAEC07F0000E566E000E0E
:10093A00556E000EE0EC07F0010E4F6E080E506E79
:10094A000DEC07F05550E0EC07F0100E4F6E000E5C
:10095A00506E0DEC07F0030E526E080E516E770EB4
:10096A00E82EFED7512EFCD7522EFAD700F0000EF1
:10097A00DAEC07F0010E4F6E080E506E0DEC07F020
:10098A005550DAEC07F01E0E4F6E000E506E0DEC4D
:10099A0007F0030E526E080E516E770EE82EFED740
:1009AA00512EFCD7522EFAD700F0554A562A5650E5
:1009BA0009E1100E555CD8A0E5EF04F0E7EF04F06A
:1009CA009EEF04F01AEF05F0FAEC07F0000E566EEF
:1009DA00000E556E000EE0EC07F0010E4F6E080E89
:1009EA00506E0DEC07F05550E0EC07F0600E4F6EBC
:1009FA00000E506E0DEC07F0040E526E8E0E516E04
:100A0A00120EE82EFED7512EFCD7522EFAD700D05E
:100A1A00554A562A565009E1100E555CD8A018EFCF
:100A2A0005F01AEF05F0EFEF04F05750516E526AD5
:100A3A005250000AD8B424EF05F01AEF05F05150CD
:100A4A00000AD8B414EF04F0010AD8B447EF04F04E
:100A5A00030AD8B498EF04F0010AD8B4E9EF04F015
:100A6A001AEF05F007EF00F0436E43BE3FEF05F0C3
:100A7A0043EF05F0426A422A44EF05F0426A4232E5
:100A8A004232815042187F0B4218816E43BC50EFAC
:100A9A0005F054EF05F0426A422A55EF05F0426A22
:100AAA00423A4246424681504218BF0B4218816E72
:100ABA0043BA62EF05F066EF05F0426A422A67EF31
:100ACA0005F0426A423A424681504218DF0B421808
:100ADA00816E43B873EF05F077EF05F0426A422A58
:100AEA0078EF05F0426A423A81504218EF0B4218F9
:100AFA00816E43B683EF05F087EF05F0426A422A1A
:100B0A0088EF05F0426A4246424642468150421800
:100B1A00F70B4218816E43B495EF05F099EF05F093
:100B2A00426A422A9AEF05F0426A42464246815098
:100B3A004218FB0B4218816E43B2A6EF05F0AAEFEA
:100B4A0005F0426A422AABEF05F0426A42468150FA
:100B5A004218FD0B4218816E43B0B6EF05F0BAEFAA
:100B6A0005F0426A422ABBEF05F0426A423242323B
:100B7A00835042187F0B4218836E1200436E43BEA5
:100B8A00C9EF05F0CDEF05F0426A422ACEEF05F033
:100B9A00426A42324232935042187F0B4218936E95
:100BAA0043BCDAEF05F0DEEF05F0426A422ADFEFD6
:100BBA0005F0426A423A4246424693504218BF0BF7
:100BCA004218936E43BAECEF05F0F0EF05F0426A73
:100BDA00422AF1EF05F0426A423A424693504218DD
:100BEA00DF0B4218936E43B8FDEF05F001EF06F0F4
:100BFA00426A422A02EF06F0426A423A9350421887
:100C0A00EF0B4218936E43B60DEF06F011EF06F0A4
:100C1A00426A422A12EF06F0426A42464246424677
:100C2A0093504218F70B4218936E43B41FEF06F025
:100C3A0023EF06F0426A422A24EF06F0426A42464D
:100C4A00424693504218FB0B4218936E43B230EF60
:100C5A0006F034EF06F0426A422A35EF06F0426A9D
:100C6A00424693504218FD0B4218936E43B040EF30
:100C7A0006F044EF06F0426A422A45EF06F0426A5D
:100C8A0042324232955042187F0B4218956E12003A
:100C9A004C6E95BE53EF06F057EF06F0446A442AAD
:100CAA0058EF06F0446A93B25DEF06F061EF06F082
:100CBA00020E456E62EF06F0456A93B467EF06F0DE
:100CCA006BEF06F0040E466E6CEF06F0466A93B6BA
:100CDA0071EF06F075EF06F0080E476E76EF06F034
:100CEA00476A93B87BEF06F07FEF06F0100E486E66
:100CFA0080EF06F0486A93BA85EF06F089EF06F0AE
:100D0A00200E496E8AEF06F0496A93BC8FEF06F00F
:100D1A0093EF06F0400E4A6E94EF06F04A6A93BECD
:100D2A0099EF06F09DEF06F0800E4B6E9EEF06F0EF
:100D3A004B6A4B504A10491048104710461045104C
:100D4A0044104D6E939E939C939A93989396939482
:100D5A009392959E4C5039EC05F0828000D0829097
:100D6A004D50C3EC05F082B4BDEF06F0BFEF06F0BC
:100D7A00C6EF06F0340E446EF20EE82EFED7442E6D
:100D8A00FCD7210EE82EFED700F01200949494921C
:100D9A009490939E939C939A9398939693949392F8
:100DAA00959E829282908294030E506E080E4F6E28
:100DBA00770EE82EFED74F2EFCD7502EFAD700F02A
:100DCA00380E4DEC06F00D0E4F6EFC0EE82EFED7D7
:100DDA004F2EFCD7300E4DEC06F0850EE82EFED7CE
:100DEA0000F0300E4DEC06F0850EE82EFED700F02E
:100DFA00300E4DEC06F00D0EE82EFED700F0FEEC9C
:100E0A0007F0FAEC07F0F2EC07F0F6EC07F0120044
:100E1A0023EF07F04FC0F6FF50C0F7FFF86A070E3E
:100E2A00F76403D00800F55005D0F6CFE9FFF7CFF5
:100E3A00EAFFEF50C8EC07F04F4A502A4FC0F6FFBE
:100E4A0050C0F7FFF86A070EF76403D00800F550A0
:100E5A0005D0F6CFE9FFF7CFEAFFEF500009D8A493
:100E6A0039EF07F03BEF07F00FEF07F01200A40E7F
:100E7A00F66E0F0EF76E000EF86E00EE60F010EED2
:100E8A0010F00900F5CFEEFFE550E150FAE11C0E33
:100E9A00F66E0F0EF76E000EF86E00EE01F010EE11
:100EAA0041F00900F5CFEEFFE550E150FAE1576A4B
:100EBA00566A556A546A536A58905892000EF86EE8
:100ECA0000010DEF04F0426EF10E4218D8A470EF43
:100EDA0007F072EF07F075EF07F0EE0E8DEF07F0EF
:100EEA00D10E4218D8A47CEF07F07EEF07F080EF0E
:100EFA0007F072EF07F0B00E4218D8A487EF07F098
:100F0A0089EF07F08CEF07F0DF0E8DEF07F0425004
:100F1A001200456E2057656C73205468656F7279AC
:100F2A00004D6163687563612043756964610054AB
:100F3A0075204D756E646F2043544D004C612054EA
:100F4A00657369732121210056414D4F532057453E
:030F5A004C5300F5
:100F5E000600F2A2B5EF07F0B7EF07F0BBEF07F010
:100F6E00572AF292C6EF07F0040E5718D8A4C2EF14
:100F7E0007F0C4EF07F0C6EF07F0000E576E589259
:100F8E0011004E6E82844E5068EC07F04E6E4E503D
:100F9E004DEC06F012004672616E7A756120327861
:100FAE0031736F6C3F004F6E4F50C00FECEC07F07B
:100FBE0012004F6E4F50800FECEC07F01200700EC7
:100FCE00D3129380CBEC06F012004E6E82944E50EC
:100FDE004DEC06F012000C0EECEC07F01200060EB3
:100FEE00ECEC07F01200010EECEC07F01200380EDC
:060FFE00ECEC07F012000C
:020000040020DA
:08000000FFFFFFFFFFFFFFFF00
:020000040030CA
:0E0000000009191EFF8181FF0FC00FE00F40A5
:00000001FF
