:020000040000FA
:0400000029EF00F0F4
:0600080041823BED07F010
:100018004180D8CF01F0E8CF02F0E0CF03F09EACEA
:1000280018EF00F01AEF00F021EF00F08C82010EBB
:100038003E6E9E9C8C9221EF00F003C0E0FF02C050
:0E004800E8FF01C0D8FF419010005EEF07F006
:1008000000486F6C61207969737573200D0A00418F
:100810003D5B002C0000959095929282B4EC07F01D
:100820009BEC07F0E6EC07F0D58E8C80010E056E90
:10083000080E066E08EC07F00F0E056E080E066E29
:1008400008EC07F024EF04F03E04D8A42AEF04F0EB
:100850002CEF04F06AEF04F0C7EC07F004C03AF0A4
:1008600005C03BF04004D8A438EF04F03AEF04F0A0
:1008700056EF04F096EC06F03D6E3D50D8B443EFD1
:1008800004F046EF04F0010E47EF04F0000E406E56
:100890002EC060F02FC061F030C062F031C063F054
:1008A00032C064F033C065F056EF04F03D04D8A4C4
:1008B0005CEF04F05EEF04F06AEF04F07DEC07F00B
:1008C00096EC06F02A6E2A50386E396A6AEF04F008
:1008D0006AEF04F03C04D8A470EF04F072EF04F067
:1008E00024EF04F0000E2D6E000E2C6E2DBE82EF54
:1008F00004F02D5009E1320E2C5CD8A082EF04F0F8
:1009000084EF04F088EF04F0C5EF04F0C5EF04F0C5
:10091000D8902C34D96E2D34DA6E600ED926000EA4
:10092000DA22DECF2AF0DDCF2BF02AC012F02BC066
:1009300013F0146A156AD1EC04F02DBEABEF04F08D
:100940002D5007E1320E2C5CD8B0A9EF04F0ABEFCC
:1009500004F0B3EF04F0130E056E080E066E08ECFB
:1009600007F0B3EF04F02C4A2D2A2DBEC1EF04F09E
:100970002D5009E1320E2C5CD8A0C1EF04F0C3EF7A
:1009800004F088EF04F0C5EF04F0000E3C6E010E99
:10099000406E24EF04F024EF04F024EF04F029EF7C
:1009A00000F0000E286E0B0E296E15BEDCEF04F071
:1009B000DAEF04F0E8EF04F0010E286E151E141EA5
:1009C000131E126C000E132214221522E8EF04F0FD
:1009D0002950010D180EF324D96E000EF420DA6EA2
:1009E000000EDF6E2906F5EF04F012C004F013C00C
:1009F00005F014C006F015C007F00A0E086E000ED0
:100A0000096E000E0A6E000E0B6E0CEC06F0300E36
:100A10000424246E000E0520256E000E0620266E8E
:100A2000000E0720276E2950010D180EF324D96EF1
:100A3000000EF420DA6E24C0DFFF290612C004F095
:100A400013C005F014C006F015C007F00A0E086EBA
:100A5000000E096E000E0A6E000E0B6E72EC05F0B1
:100A600004C012F005C013F006C014F007C015F062
:100A70001250131014101510D8A441EF05F043EFD5
:100A800005F0F5EF04F045EF05F02850D8B44BEF32
:100A900005F04DEF05F059EF05F02950010D180E46
:100AA000F324D96E000EF420DA6E2D0EDF6E5CEFAB
:100AB00005F0292A5CEF05F0030E176E8A0E166EFC
:100AC000560EE82EFED7162EFCD7172EFAD7295031
:100AD000010D180EF324056E000EF420066E08ECCE
:100AE00007F01200000E0D6E0BBE7BEF05F079EFE4
:100AF00005F087EF05F00B1E0A1E091E086C000E9C
:100B000009220A220B22010E0D6E87EF05F007BEA7
:100B10008EEF05F08CEF05F09AEF05F0071E061E2C
:100B2000051E046C000E052206220722010E0D1A76
:100B30009AEF05F0000E0E6E000E0F6E000E106E96
:100B4000000E116E085009100A100B10D8B4ABEF4C
:100B500005F0ADEF05F0EFEF05F0010E0C6EB9EF0B
:100B600005F0D890083609360A360B360C2AB9EF4C
:100B700005F00BAEBEEF05F0C0EF05F0B1EF05F0EC
:100B8000C4EF05F0C4EF05F0D8900E360F361036DE
:100B900011360850045C095005580A5006580B508D
:100BA0000758D8A0D6EF05F0D8EF05F0E3EF05F031
:100BB0000850045E0950055A0A50065A0B50075A4D
:100BC0000E80E3EF05F0D8900B320A32093208327A
:100BD0000C2EC4EF05F0EFEF05F0EFEF05F00D5030
:100BE000D8B4F5EF05F0F7EF05F001EF06F0111EB0
:100BF000101E0F1E0E6C000E0F221022112201EF8C
:100C000006F00EC004F00FC005F010C006F011C0D1
:100C100007F00BEF06F01200000E0D6E07BE15EF89
:100C200006F013EF06F021EF06F0071E061E051E64
:100C3000046C000E052206220722010E0D6E21EF24
:100C400006F00BBE28EF06F026EF06F032EF06F0B6
:100C50000B1E0A1E091E086C000E09220A220B2216
:100C600032EF06F0085009100A100B10D8B43BEF11
:100C700006F03DEF06F079EF06F0010E0C6E49EF3D
:100C800006F0D890083609360A360B360C2A49EF9A
:100C900006F00BAE4EEF06F050EF06F041EF06F017
:100CA00054EF06F054EF06F00850045C0950055864
:100CB0000A5006580B500758D8A061EF06F063EFB2
:100CC00006F06DEF06F00850045E0950055A0A5010
:100CD000065A0B50075A6DEF06F0D8900B320A32C5
:100CE000093208320C2E54EF06F079EF06F079EF56
:100CF00006F00D50D8B47FEF06F081EF06F08BEFD1
:100D000006F0071E061E051E046C000E05220622B4
:100D100007228BEF06F004C004F005C005F006C002
:100D200006F007C007F095EF06F0120030C02EF075
:100D300031C02FF032C030F033C031F03AC032F061
:100D40003BC033F020EE32F0DECF04F0DDCF05F013
:100D5000041E051E044A052A30500424076E315033
:100D60000520086E20EE30F0DECF04F0DDCF05F078
:100D7000041E051E044A052A2E500424096E2F5015
:100D800005200A6E08BED0EF06F0085007E10B0EF2
:100D9000075CD8B0CEEF06F0D0EF06F0E0EF06F03B
:100DA00008AEDCEF06F0F60E075CFF0E0858D8B070
:100DB000DCEF06F0DEEF06F002EF07F0E0EF06F002
:100DC0000ABEEEEF06F00A5007E10B0E095CD8B040
:100DD000ECEF06F0EEEF06F0FEEF06F00AAEFAEFEB
:100DE00006F0F60E095CFF0E0A58D8B0FAEF06F0CE
:100DF000FCEF06F002EF07F0FEEF06F0010E066EC4
:100E000004EF07F0000E066E065007EF07F0120021
:100E100020EF07F005C0F6FF06C0F7FFF86A070EDF
:100E2000F76403D00800F55005D0F6CFE9FFF7CFFF
:100E3000EAFFEF50D7EC07F0054A062A20EF07F04B
:100E400005C0F6FF06C0F7FFF86A070EF76403D087
:100E50000800F55005D0F6CFE9FFF7CFEAFFEF50D5
:100E60000009D8A436EF07F038EF07F00AEF07F0D3
:100E70003AEF07F012000600F2A441EF07F043EF4B
:100E800007F05CEF07F08C80F5EC07F0364A372A64
:100E90000A0E36183710D8A450EF07F052EF07F0BB
:100EA00059EF07F0000E376E000E366EC28259EF12
:100EB00007F08C905CEF07F041921100F60EF66E91
:100EC0000F0EF76E000EF86E0900F5CF3FF0090027
:100ED000F5CF40F000EE60F0640EEE6AE806FDE14A
:100EE00000EE2EF0110EEE6AE806FDE1419041920F
:100EF000000EF86E00010BEF04F03F50020D600E83
:100F0000F324D96E000EF420DA6E3AC0DEFF3BC047
:100F1000DDFF3F2A310E3F6490EF07F092EF07F0BC
:100F20009AEF07F0030E3F6E000E3D6E010E3C6E11
:100F30009AEF07F0120092809E9C9D8C9F9CC0505F
:100F4000C70B1009C06EC050F80B0509C06EC08EEB
:100F5000C150F00B0D09C16ECF0EC116C294C296DE
:100F6000C298C29AC2801200F28ED08EF28CD59EA8
:100F7000F294F28AFE0ED76E0C0ED66ED59CD586F4
:100F8000D59AD598D550F80B0109D56E1200C450EA
:100F9000076E066AC3500624046E000E0720056E15
:100FA000D6EF07F0D6EF07F0000E3E6E1200046E8B
:100FB000DAEF07F0ACA2DFEF07F0E1EF07F0DAEFCE
:100FC00007F0E3EF07F004C0ADFF1200948E949C8D
:100FD000030EAF6E010EB06EAB8EAC98B886AC84CB
:100FE000AC9CAC8AAB9CAB881200FE0ED76E0C0E8C
:080FF000D66EF2941200030119
:020000040020DA
:08000000FFFFFFFFFFFFFFFF00
:020000040030CA
:0E000000000C191EFF8181FF0FC00FE00F40A2
:00000001FF
